{
  "contractName": "Election",
  "abi": [
    {
      "inputs": [],
      "payable": false,
      "stateMutability": "nonpayable",
      "type": "constructor"
    },
    {
      "constant": true,
      "inputs": [],
      "name": "allVotesCount",
      "outputs": [
        {
          "internalType": "uint256",
          "name": "",
          "type": "uint256"
        }
      ],
      "payable": false,
      "stateMutability": "view",
      "type": "function"
    },
    {
      "constant": true,
      "inputs": [
        {
          "internalType": "uint256",
          "name": "",
          "type": "uint256"
        }
      ],
      "name": "candidates",
      "outputs": [
        {
          "internalType": "uint256",
          "name": "id",
          "type": "uint256"
        },
        {
          "internalType": "string",
          "name": "name",
          "type": "string"
        },
        {
          "internalType": "uint256",
          "name": "voteCount",
          "type": "uint256"
        }
      ],
      "payable": false,
      "stateMutability": "view",
      "type": "function"
    },
    {
      "constant": true,
      "inputs": [],
      "name": "candidatesCount",
      "outputs": [
        {
          "internalType": "uint256",
          "name": "",
          "type": "uint256"
        }
      ],
      "payable": false,
      "stateMutability": "view",
      "type": "function"
    },
    {
      "constant": true,
      "inputs": [],
      "name": "electionInstancesCount",
      "outputs": [
        {
          "internalType": "uint256",
          "name": "",
          "type": "uint256"
        }
      ],
      "payable": false,
      "stateMutability": "view",
      "type": "function"
    },
    {
      "constant": true,
      "inputs": [
        {
          "internalType": "uint256",
          "name": "",
          "type": "uint256"
        }
      ],
      "name": "election_instances",
      "outputs": [
        {
          "internalType": "string",
          "name": "code",
          "type": "string"
        },
        {
          "internalType": "bool",
          "name": "ongoing",
          "type": "bool"
        }
      ],
      "payable": false,
      "stateMutability": "view",
      "type": "function"
    },
    {
      "constant": true,
      "inputs": [
        {
          "internalType": "address",
          "name": "",
          "type": "address"
        }
      ],
      "name": "isRegistered",
      "outputs": [
        {
          "internalType": "bool",
          "name": "",
          "type": "bool"
        }
      ],
      "payable": false,
      "stateMutability": "view",
      "type": "function"
    },
    {
      "constant": true,
      "inputs": [
        {
          "internalType": "uint256",
          "name": "",
          "type": "uint256"
        }
      ],
      "name": "myVotes",
      "outputs": [
        {
          "internalType": "address",
          "name": "",
          "type": "address"
        }
      ],
      "payable": false,
      "stateMutability": "view",
      "type": "function"
    },
    {
      "constant": true,
      "inputs": [
        {
          "internalType": "address",
          "name": "",
          "type": "address"
        }
      ],
      "name": "myVotes2",
      "outputs": [
        {
          "internalType": "string",
          "name": "",
          "type": "string"
        }
      ],
      "payable": false,
      "stateMutability": "view",
      "type": "function"
    },
    {
      "constant": true,
      "inputs": [
        {
          "internalType": "uint256",
          "name": "",
          "type": "uint256"
        }
      ],
      "name": "persons",
      "outputs": [
        {
          "internalType": "uint256",
          "name": "id",
          "type": "uint256"
        },
        {
          "internalType": "string",
          "name": "addr",
          "type": "string"
        },
        {
          "internalType": "uint256",
          "name": "role",
          "type": "uint256"
        }
      ],
      "payable": false,
      "stateMutability": "view",
      "type": "function"
    },
    {
      "constant": true,
      "inputs": [
        {
          "internalType": "string",
          "name": "",
          "type": "string"
        }
      ],
      "name": "persons2",
      "outputs": [
        {
          "internalType": "uint256",
          "name": "",
          "type": "uint256"
        }
      ],
      "payable": false,
      "stateMutability": "view",
      "type": "function"
    },
    {
      "constant": true,
      "inputs": [],
      "name": "personsCount",
      "outputs": [
        {
          "internalType": "uint256",
          "name": "",
          "type": "uint256"
        }
      ],
      "payable": false,
      "stateMutability": "view",
      "type": "function"
    },
    {
      "constant": true,
      "inputs": [
        {
          "internalType": "address",
          "name": "",
          "type": "address"
        }
      ],
      "name": "voters",
      "outputs": [
        {
          "internalType": "bool",
          "name": "",
          "type": "bool"
        }
      ],
      "payable": false,
      "stateMutability": "view",
      "type": "function"
    },
    {
      "constant": false,
      "inputs": [
        {
          "internalType": "string",
          "name": "_name",
          "type": "string"
        }
      ],
      "name": "addCandidate",
      "outputs": [],
      "payable": false,
      "stateMutability": "nonpayable",
      "type": "function"
    },
    {
      "constant": false,
      "inputs": [
        {
          "internalType": "string",
          "name": "_code",
          "type": "string"
        }
      ],
      "name": "addElection",
      "outputs": [],
      "payable": false,
      "stateMutability": "nonpayable",
      "type": "function"
    },
    {
      "constant": false,
      "inputs": [
        {
          "internalType": "string",
          "name": "_addr",
          "type": "string"
        },
        {
          "internalType": "uint256",
          "name": "_role",
          "type": "uint256"
        }
      ],
      "name": "register",
      "outputs": [],
      "payable": false,
      "stateMutability": "nonpayable",
      "type": "function"
    },
    {
      "constant": false,
      "inputs": [
        {
          "internalType": "string",
          "name": "_addr2",
          "type": "string"
        },
        {
          "internalType": "uint256",
          "name": "_role2",
          "type": "uint256"
        }
      ],
      "name": "addVoter",
      "outputs": [],
      "payable": false,
      "stateMutability": "nonpayable",
      "type": "function"
    },
    {
      "constant": false,
      "inputs": [
        {
          "internalType": "uint256",
          "name": "_candidateId",
          "type": "uint256"
        },
        {
          "internalType": "string",
          "name": "_votersvote",
          "type": "string"
        }
      ],
      "name": "vote",
      "outputs": [],
      "payable": false,
      "stateMutability": "nonpayable",
      "type": "function"
    },
    {
      "constant": false,
      "inputs": [
        {
          "internalType": "string",
          "name": "_a",
          "type": "string"
        }
      ],
      "name": "parseAddr",
      "outputs": [
        {
          "internalType": "address",
          "name": "_parsedAddress",
          "type": "address"
        }
      ],
      "payable": false,
      "stateMutability": "nonpayable",
      "type": "function"
    }
  ],
  "bytecode": "0x60806040523480156200001157600080fd5b50620000586040518060400160405280600f81526020017f4e65706869612044616c69736179210000000000000000000000000000000000815250620000a460201b60201c565b6200009e6040518060400160405280600d81526020017f4269616e6361204275656e6f2100000000000000000000000000000000000000815250620000a460201b60201c565b620001d1565b6008600081548092919060010191905055506040518060600160405280600854815260200182815260200160008152506007600060085481526020019081526020016000206000820151816000015560208201518160010190805190602001906200011192919062000122565b506040820151816002015590505050565b828054600181600116156101000203166002900490600052602060002090601f016020900481019282601f106200016557805160ff191683800117855562000196565b8280016001018555821562000196579182015b828111156200019557825182559160200191906001019062000178565b5b509050620001a59190620001a9565b5090565b620001ce91905b80821115620001ca576000816000905550600101620001b0565b5090565b90565b61188280620001e16000396000f3fe608060405234801561001057600080fd5b50600436106101165760003560e01c8063871c442d116100a2578063a3ec138d11610071578063a3ec138d146107e4578063a682318914610840578063c3c5a5471461093b578063d2abaa5814610997578063ea87152b14610a5c57610116565b8063871c442d14610685578063932f925f146106a35780639e78f3ed14610711578063a2f9eac61461072f57610116565b80633477ee2e116100e95780633477ee2e1461038a578063358b9d971461043f578063462e91ec146104fa57806370dc66f3146105b557806383b0b3c7146105d357610116565b806305c462b81461011b57806324108475146101d85780632d35a8a21461029d5780632fc3a1fd146102bb575b600080fd5b61015d6004803603602081101561013157600080fd5b81019080803573ffffffffffffffffffffffffffffffffffffffff169060200190929190505050610b21565b6040518080602001828103825283818151815260200191508051906020019080838360005b8381101561019d578082015181840152602081019050610182565b50505050905090810190601f1680156101ca5780820380516001836020036101000a031916815260200191505b509250505060405180910390f35b61029b600480360360408110156101ee57600080fd5b81019080803590602001909291908035906020019064010000000081111561021557600080fd5b82018360208201111561022757600080fd5b8035906020019184600183028401116401000000008311171561024957600080fd5b91908080601f016020809104026020016040519081016040528093929190818152602001838380828437600081840152601f19601f820116905080830192505050505050509192919290505050610bd1565b005b6102a5610d7f565b6040518082815260200191505060405180910390f35b610374600480360360208110156102d157600080fd5b81019080803590602001906401000000008111156102ee57600080fd5b82018360208201111561030057600080fd5b8035906020019184600183028401116401000000008311171561032257600080fd5b91908080601f016020809104026020016040519081016040528093929190818152602001838380828437600081840152601f19601f820116905080830192505050505050509192919290505050610d85565b6040518082815260200191505060405180910390f35b6103b6600480360360208110156103a057600080fd5b8101908080359060200190929190505050610db3565b6040518084815260200180602001838152602001828103825284818151815260200191508051906020019080838360005b838110156104025780820151818401526020810190506103e7565b50505050905090810190601f16801561042f5780820380516001836020036101000a031916815260200191505b5094505050505060405180910390f35b6104f86004803603602081101561045557600080fd5b810190808035906020019064010000000081111561047257600080fd5b82018360208201111561048457600080fd5b803590602001918460018302840111640100000000831117156104a657600080fd5b91908080601f016020809104026020016040519081016040528093929190818152602001838380828437600081840152601f19601f820116905080830192505050505050509192919290505050610e75565b005b6105b36004803603602081101561051057600080fd5b810190808035906020019064010000000081111561052d57600080fd5b82018360208201111561053f57600080fd5b8035906020019184600183028401116401000000008311171561056157600080fd5b91908080601f016020809104026020016040519081016040528093929190818152602001838380828437600081840152601f19601f820116905080830192505050505050509192919290505050610ef7565b005b6105bd610f73565b6040518082815260200191505060405180910390f35b6105ff600480360360208110156105e957600080fd5b8101908080359060200190929190505050610f79565b604051808060200183151515158152602001828103825284818151815260200191508051906020019080838360005b8381101561064957808201518184015260208101905061062e565b50505050905090810190601f1680156106765780820380516001836020036101000a031916815260200191505b50935050505060405180910390f35b61068d611042565b6040518082815260200191505060405180910390f35b6106cf600480360360208110156106b957600080fd5b8101908080359060200190929190505050611048565b604051808273ffffffffffffffffffffffffffffffffffffffff1673ffffffffffffffffffffffffffffffffffffffff16815260200191505060405180910390f35b61071961107b565b6040518082815260200191505060405180910390f35b61075b6004803603602081101561074557600080fd5b8101908080359060200190929190505050611081565b6040518084815260200180602001838152602001828103825284818151815260200191508051906020019080838360005b838110156107a757808201518184015260208101905061078c565b50505050905090810190601f1680156107d45780820380516001836020036101000a031916815260200191505b5094505050505060405180910390f35b610826600480360360208110156107fa57600080fd5b81019080803573ffffffffffffffffffffffffffffffffffffffff169060200190929190505050611143565b604051808215151515815260200191505060405180910390f35b6108f96004803603602081101561085657600080fd5b810190808035906020019064010000000081111561087357600080fd5b82018360208201111561088557600080fd5b803590602001918460018302840111640100000000831117156108a757600080fd5b91908080601f016020809104026020016040519081016040528093929190818152602001838380828437600081840152601f19601f820116905080830192505050505050509192919290505050611163565b604051808273ffffffffffffffffffffffffffffffffffffffff1673ffffffffffffffffffffffffffffffffffffffff16815260200191505060405180910390f35b61097d6004803603602081101561095157600080fd5b81019080803573ffffffffffffffffffffffffffffffffffffffff1690602001909291905050506113bc565b604051808215151515815260200191505060405180910390f35b610a5a600480360360408110156109ad57600080fd5b81019080803590602001906401000000008111156109ca57600080fd5b8201836020820111156109dc57600080fd5b803590602001918460018302840111640100000000831117156109fe57600080fd5b91908080601f016020809104026020016040519081016040528093929190818152602001838380828437600081840152601f19601f820116905080830192505050505050509192919290803590602001909291905050506113dc565b005b610b1f60048036036040811015610a7257600080fd5b8101908080359060200190640100000000811115610a8f57600080fd5b820183602082011115610aa157600080fd5b80359060200191846001830284011164010000000083111715610ac357600080fd5b91908080601f016020809104026020016040519081016040528093929190818152602001838380828437600081840152601f19601f82011690508083019250505050505050919291929080359060200190929190505050611582565b005b60066020528060005260406000206000915090508054600181600116156101000203166002900480601f016020809104026020016040519081016040528092919081815260200182805460018160011615610100020316600290048015610bc95780601f10610b9e57610100808354040283529160200191610bc9565b820191906000526020600020905b815481529060010190602001808311610bac57829003601f168201915b505050505081565b600360003373ffffffffffffffffffffffffffffffffffffffff1673ffffffffffffffffffffffffffffffffffffffff16815260200190815260200160002060009054906101000a900460ff1615610c2857600080fd5b600082118015610c3a57506008548211155b610c4357600080fd5b6001600360003373ffffffffffffffffffffffffffffffffffffffff1673ffffffffffffffffffffffffffffffffffffffff16815260200190815260200160002060006101000a81548160ff0219169083151502179055506009600081548092919060010191905055503360056000600954815260200190815260200160002060006101000a81548173ffffffffffffffffffffffffffffffffffffffff021916908373ffffffffffffffffffffffffffffffffffffffff16021790555080600660003373ffffffffffffffffffffffffffffffffffffffff1673ffffffffffffffffffffffffffffffffffffffff1681526020019081526020016000209080519060200190610d54929190611728565b5060076000838152602001908152602001600020600201600081548092919060010191905055505050565b60085481565b6001818051602081018201805184825260208301602085012081835280955050505050506000915090505481565b6007602052806000526040600020600091509050806000015490806001018054600181600116156101000203166002900480601f016020809104026020016040519081016040528092919081815260200182805460018160011615610100020316600290048015610e655780601f10610e3a57610100808354040283529160200191610e65565b820191906000526020600020905b815481529060010190602001808311610e4857829003601f168201915b5050505050908060020154905083565b600a6000815480929190600101919050555060405180604001604052808281526020016000151581525060026000600a5481526020019081526020016000206000820151816000019080519060200190610ed09291906117a8565b5060208201518160010160006101000a81548160ff02191690831515021790555090505050565b600860008154809291906001019190505550604051806060016040528060085481526020018281526020016000815250600760006008548152602001908152602001600020600082015181600001556020820151816001019080519060200190610f629291906117a8565b506040820151816002015590505050565b60095481565b6002602052806000526040600020600091509050806000018054600181600116156101000203166002900480601f0160208091040260200160405190810160405280929190818152602001828054600181600116156101000203166002900480156110255780601f10610ffa57610100808354040283529160200191611025565b820191906000526020600020905b81548152906001019060200180831161100857829003601f168201915b5050505050908060010160009054906101000a900460ff16905082565b600b5481565b60056020528060005260406000206000915054906101000a900473ffffffffffffffffffffffffffffffffffffffff1681565b600a5481565b6000602052806000526040600020600091509050806000015490806001018054600181600116156101000203166002900480601f0160208091040260200160405190810160405280929190818152602001828054600181600116156101000203166002900480156111335780601f1061110857610100808354040283529160200191611133565b820191906000526020600020905b81548152906001019060200180831161111657829003601f168201915b5050505050908060020154905083565b60036020528060005260406000206000915054906101000a900460ff1681565b6000606082905060008090506000806000600290505b602a8110156113af576101008402935084818151811061119557fe5b602001015160f81c60f81b60f81c60ff1692508460018201815181106111b757fe5b602001015160f81c60f81b60f81c60ff16915060618373ffffffffffffffffffffffffffffffffffffffff1610158015611208575060668373ffffffffffffffffffffffffffffffffffffffff1611155b15611218576057830392506112b2565b60418373ffffffffffffffffffffffffffffffffffffffff1610158015611256575060468373ffffffffffffffffffffffffffffffffffffffff1611155b15611266576037830392506112b1565b60308373ffffffffffffffffffffffffffffffffffffffff16101580156112a4575060398373ffffffffffffffffffffffffffffffffffffffff1611155b156112b0576030830392505b5b5b60618273ffffffffffffffffffffffffffffffffffffffff16101580156112f0575060668273ffffffffffffffffffffffffffffffffffffffff1611155b156113005760578203915061139a565b60418273ffffffffffffffffffffffffffffffffffffffff161015801561133e575060468273ffffffffffffffffffffffffffffffffffffffff1611155b1561134e57603782039150611399565b60308273ffffffffffffffffffffffffffffffffffffffff161015801561138c575060398273ffffffffffffffffffffffffffffffffffffffff1611155b15611398576030820391505b5b5b81601084020184019350600281019050611179565b5082945050505050919050565b60046020528060005260406000206000915054906101000a900460ff1681565b60006113e783611163565b9050600460008273ffffffffffffffffffffffffffffffffffffffff1673ffffffffffffffffffffffffffffffffffffffff16815260200190815260200160002060009054906101000a900460ff161561144057600080fd5b6001600460008373ffffffffffffffffffffffffffffffffffffffff1673ffffffffffffffffffffffffffffffffffffffff16815260200190815260200160002060006101000a81548160ff021916908315150217905550600b600081548092919060010191905055506040518060600160405280600b54815260200184815260200183815250600080600b5481526020019081526020016000206000820151816000015560208201518160010190805190602001906115019291906117a8565b5060408201518160020155905050816001846040518082805190602001908083835b602083106115465780518252602082019150602081019050602083039250611523565b6001836020036101000a038019825116818451168082178552505050505050905001915050908152602001604051809103902081905550505050565b600061158d83611163565b9050600460008273ffffffffffffffffffffffffffffffffffffffff1673ffffffffffffffffffffffffffffffffffffffff16815260200190815260200160002060009054906101000a900460ff16156115e657600080fd5b6001600460008373ffffffffffffffffffffffffffffffffffffffff1673ffffffffffffffffffffffffffffffffffffffff16815260200190815260200160002060006101000a81548160ff021916908315150217905550600b600081548092919060010191905055506040518060600160405280600b54815260200184815260200183815250600080600b5481526020019081526020016000206000820151816000015560208201518160010190805190602001906116a79291906117a8565b5060408201518160020155905050816001846040518082805190602001908083835b602083106116ec57805182526020820191506020810190506020830392506116c9565b6001836020036101000a038019825116818451168082178552505050505050905001915050908152602001604051809103902081905550505050565b828054600181600116156101000203166002900490600052602060002090601f016020900481019282601f1061176957805160ff1916838001178555611797565b82800160010185558215611797579182015b8281111561179657825182559160200191906001019061177b565b5b5090506117a49190611828565b5090565b828054600181600116156101000203166002900490600052602060002090601f016020900481019282601f106117e957805160ff1916838001178555611817565b82800160010185558215611817579182015b828111156118165782518255916020019190600101906117fb565b5b5090506118249190611828565b5090565b61184a91905b8082111561184657600081600090555060010161182e565b5090565b9056fea265627a7a723158203d493b1f150978f28c3bb577f25571a45be55eaab5f9a5b347688ccf249eaafd64736f6c63430005100032",
  "source": "pragma solidity ^0.5.16; // remove '^' to lock the actual solidity version (to decrease security risks)\r\n\r\ncontract Election {\r\n    // // Store candidate\r\n    // // Read candidate\r\n    // string public candidate; // state variable - accessible inside contract (represent data that belongs to entire contract)\r\n    // // Constructor - smth that's gonna get run whenever contract is initialized upon migration\r\n    // constructor () public { // we use this for this ver, not the 'function Election () public' one\r\n    //     candidate = \"Nephia Dalisay\"; \r\n    // }\r\n\r\n    // // Model a Person\r\n        struct Person {\r\n            uint id;\r\n            string addr;\r\n            uint role;\r\n        }\r\n\r\n    // Model a Candidate\r\n        struct Candidate {\r\n            uint id;    // unsigned integer\r\n            string name;\r\n            uint voteCount;\r\n        }\r\n\r\n        struct Election_Instance {\r\n            string code;\r\n            bool ongoing;\r\n        }\r\n\r\n    // Store all people\r\n        mapping (uint => Person) public persons;\r\n        mapping (string => uint) public persons2; // address => role_num \r\n\r\n    // Store all election instances\r\n        mapping (uint => Election_Instance) public election_instances;\r\n\r\n    // Store accounts that have voted\r\n    // ~~~~~~~~~~~~~~~~~~~~~~~~~~~~~~\r\n    mapping(address => bool) public voters;\r\n        // mapping(string => Voter) public voters;\r\n\r\n    mapping(address => bool) public isRegistered;\r\n\r\n    mapping(uint => address) public myVotes; // new vote storage !!!!!!!!!!!!!!!!!!!!!!!!!\r\n    mapping (address => string) public myVotes2; // !!!!!!!!!!!!!!!!!!!!!!!!!\r\n\r\n    // Store Candidate\r\n    // Fetch Candidate\r\n    mapping(uint => Candidate) public candidates; // mapping(_KeyType => _ValueType) public mappingName\r\n\r\n    // Store Candidates Count\r\n        uint public candidatesCount; //used to keep track of how many candidates there are (iterating not possible in Solidity)\r\n\r\n        uint public allVotesCount; // storing number of all votes !!!!!!!!!!!!!!!!!!!!\r\n\r\n    // Election Instances Count\r\n        uint public electionInstancesCount;\r\n\r\n    // Persons Count\r\n        uint public personsCount;\r\n\r\n    // constructor function is responsible for initializing upon call of Election smart contract\r\n    constructor () public { // we use this for this ver, not the 'function Election () public' one\r\n        addCandidate(\"Nephia Dalisay!\");\r\n        addCandidate(\"Bianca Bueno!\");\r\n    }\r\n\r\n    function addCandidate (string memory _name) public {\r\n        candidatesCount ++;\r\n        candidates[candidatesCount] = Candidate(candidatesCount, _name, 0);\r\n    }\r\n\r\n    function addElection (string memory _code) public{\r\n        electionInstancesCount ++;\r\n        election_instances[electionInstancesCount] = Election_Instance(_code, false);\r\n    }\r\n\r\n    function register(string memory _addr, uint _role) public {        \r\n        address myAddress_addr = parseAddr(_addr);\r\n        // require that they haven't registered before\r\n        require(!isRegistered[myAddress_addr]);\r\n        isRegistered[myAddress_addr] = true;\r\n        personsCount ++;\r\n        persons[personsCount] = Person(personsCount, _addr, _role);\r\n        persons2[_addr] = _role;\r\n    }\r\n\r\n    function addVoter(string memory _addr2, uint _role2) public {        \r\n        address myAddress_addr = parseAddr(_addr2);\r\n        // string myAddress_str = _addr;\r\n        \r\n        require(!isRegistered[myAddress_addr]);\r\n        isRegistered[myAddress_addr] = true;\r\n        personsCount ++;\r\n        persons[personsCount] = Person(personsCount, _addr2, _role2);\r\n        persons2[_addr2] = _role2;\r\n    }\r\n\r\n    // function addDB(string memory _addr3, uint _role3) public {\r\n    //     persons2[_addr3] = _role3;\r\n    // }\r\n\r\n    // function sign_in (string memory _addr) public {\r\n    //     require(!persons2[_addr]);\r\n    //     person_uint = persons2[_addr];\r\n    // }\r\n\r\n    function vote(uint _candidateId, string memory _votersvote) public {\r\n        // require that they haven't voted before\r\n        require(!voters[msg.sender]);\r\n        // require a valid candidate\r\n        require(_candidateId > 0 && _candidateId <= candidatesCount);\r\n\r\n        // record that voter has voted\r\n        voters[msg.sender] = true; // msg.sender is x in 'from:x'\r\n\r\n        allVotesCount++; //!!!!!!!!!!!!!!!!!!!!!!\r\n        myVotes[allVotesCount] = msg.sender; // storing vote in mapping !!!!!!!!!!!!!!!!!!!!!\r\n        myVotes2[msg.sender] = _votersvote;\r\n\r\n        // update candidate vote count\r\n        candidates[_candidateId].voteCount ++;\r\n\r\n    }\r\n\r\n    // function merge(string memory s1, string memory s2) public returns (string _votersvote){\r\n\r\n    // }\r\n\r\n    function parseAddr(string memory _a) public returns (address _parsedAddress) {\r\n        bytes memory tmp = bytes(_a);\r\n        uint160 iaddr = 0;\r\n        uint160 b1;\r\n        uint160 b2;\r\n        for (uint i = 2; i < 2 + 2 * 20; i += 2) {\r\n            iaddr *= 256;\r\n            b1 = uint160(uint8(tmp[i]));\r\n            b2 = uint160(uint8(tmp[i + 1]));\r\n            if ((b1 >= 97) && (b1 <= 102)) {\r\n                b1 -= 87;\r\n            } else if ((b1 >= 65) && (b1 <= 70)) {\r\n                b1 -= 55;\r\n            } else if ((b1 >= 48) && (b1 <= 57)) {\r\n                b1 -= 48;\r\n            }\r\n            if ((b2 >= 97) && (b2 <= 102)) {\r\n                b2 -= 87;\r\n            } else if ((b2 >= 65) && (b2 <= 70)) {\r\n                b2 -= 55;\r\n            } else if ((b2 >= 48) && (b2 <= 57)) {\r\n                b2 -= 48;\r\n            }\r\n            iaddr += (b1 * 16 + b2);\r\n        }\r\n        return address(iaddr);\r\n}\r\n\r\n}",
  "sourcePath": "/mnt/c/Users/Nephia/NephFiles/Academics/Thesis/election/contracts/Election.sol",
  "compiler": {
    "name": "solc",
    "version": "0.5.16+commit.9c3226ce.Emscripten.clang"
  },
  "schemaVersion": "3.3.1",
  "updatedAt": "2021-05-16T18:10:00.379Z",
  "networkType": "ethereum",
  "devdoc": {
    "methods": {}
  },
  "userdoc": {
    "methods": {}
  }
}