{
  "contractName": "Election",
  "abi": [
    {
      "inputs": [],
      "payable": false,
      "stateMutability": "nonpayable",
      "type": "constructor"
    },
    {
      "constant": true,
      "inputs": [
        {
          "internalType": "uint256",
          "name": "",
          "type": "uint256"
        }
      ],
      "name": "candidates",
      "outputs": [
        {
          "internalType": "uint256",
          "name": "id",
          "type": "uint256"
        },
        {
          "internalType": "string",
          "name": "name",
          "type": "string"
        },
        {
          "internalType": "uint256",
          "name": "voteCount",
          "type": "uint256"
        }
      ],
      "payable": false,
      "stateMutability": "view",
      "type": "function"
    },
    {
      "constant": true,
      "inputs": [],
      "name": "candidatesCount",
      "outputs": [
        {
          "internalType": "uint256",
          "name": "",
          "type": "uint256"
        }
      ],
      "payable": false,
      "stateMutability": "view",
      "type": "function"
    },
    {
      "constant": true,
      "inputs": [],
      "name": "electionInstancesCount",
      "outputs": [
        {
          "internalType": "uint256",
          "name": "",
          "type": "uint256"
        }
      ],
      "payable": false,
      "stateMutability": "view",
      "type": "function"
    },
    {
      "constant": true,
      "inputs": [
        {
          "internalType": "uint256",
          "name": "",
          "type": "uint256"
        }
      ],
      "name": "election_instances",
      "outputs": [
        {
          "internalType": "string",
          "name": "code",
          "type": "string"
        },
        {
          "internalType": "bool",
          "name": "ongoing",
          "type": "bool"
        }
      ],
      "payable": false,
      "stateMutability": "view",
      "type": "function"
    },
    {
      "constant": true,
      "inputs": [
        {
          "internalType": "address",
          "name": "",
          "type": "address"
        }
      ],
      "name": "isRegistered",
      "outputs": [
        {
          "internalType": "bool",
          "name": "",
          "type": "bool"
        }
      ],
      "payable": false,
      "stateMutability": "view",
      "type": "function"
    },
    {
      "constant": true,
      "inputs": [
        {
          "internalType": "uint256",
          "name": "",
          "type": "uint256"
        }
      ],
      "name": "persons",
      "outputs": [
        {
          "internalType": "uint256",
          "name": "id",
          "type": "uint256"
        },
        {
          "internalType": "string",
          "name": "addr",
          "type": "string"
        },
        {
          "internalType": "uint256",
          "name": "role",
          "type": "uint256"
        }
      ],
      "payable": false,
      "stateMutability": "view",
      "type": "function"
    },
    {
      "constant": true,
      "inputs": [
        {
          "internalType": "string",
          "name": "",
          "type": "string"
        }
      ],
      "name": "persons2",
      "outputs": [
        {
          "internalType": "uint256",
          "name": "",
          "type": "uint256"
        }
      ],
      "payable": false,
      "stateMutability": "view",
      "type": "function"
    },
    {
      "constant": true,
      "inputs": [],
      "name": "personsCount",
      "outputs": [
        {
          "internalType": "uint256",
          "name": "",
          "type": "uint256"
        }
      ],
      "payable": false,
      "stateMutability": "view",
      "type": "function"
    },
    {
      "constant": true,
      "inputs": [
        {
          "internalType": "address",
          "name": "",
          "type": "address"
        }
      ],
      "name": "voters",
      "outputs": [
        {
          "internalType": "bool",
          "name": "",
          "type": "bool"
        }
      ],
      "payable": false,
      "stateMutability": "view",
      "type": "function"
    },
    {
      "constant": false,
      "inputs": [
        {
          "internalType": "string",
          "name": "_name",
          "type": "string"
        }
      ],
      "name": "addCandidate",
      "outputs": [],
      "payable": false,
      "stateMutability": "nonpayable",
      "type": "function"
    },
    {
      "constant": false,
      "inputs": [
        {
          "internalType": "string",
          "name": "_code",
          "type": "string"
        }
      ],
      "name": "addElection",
      "outputs": [],
      "payable": false,
      "stateMutability": "nonpayable",
      "type": "function"
    },
    {
      "constant": false,
      "inputs": [
        {
          "internalType": "string",
          "name": "_addr",
          "type": "string"
        },
        {
          "internalType": "uint256",
          "name": "_role",
          "type": "uint256"
        }
      ],
      "name": "register",
      "outputs": [],
      "payable": false,
      "stateMutability": "nonpayable",
      "type": "function"
    },
    {
      "constant": false,
      "inputs": [
        {
          "internalType": "uint256",
          "name": "_candidateId",
          "type": "uint256"
        }
      ],
      "name": "vote",
      "outputs": [],
      "payable": false,
      "stateMutability": "nonpayable",
      "type": "function"
    }
  ],
  "bytecode": "0x60806040523480156200001157600080fd5b50620000586040518060400160405280600f81526020017f4e65706869612044616c69736179210000000000000000000000000000000000815250620000a460201b60201c565b6200009e6040518060400160405280600d81526020017f4269616e6361204275656e6f2100000000000000000000000000000000000000815250620000a460201b60201c565b620001d1565b6006600081548092919060010191905055506040518060600160405280600654815260200182815260200160008152506005600060065481526020019081526020016000206000820151816000015560208201518160010190805190602001906200011192919062000122565b506040820151816002015590505050565b828054600181600116156101000203166002900490600052602060002090601f016020900481019282601f106200016557805160ff191683800117855562000196565b8280016001018555821562000196579182015b828111156200019557825182559160200191906001019062000178565b5b509050620001a59190620001a9565b5090565b620001ce91905b80821115620001ca576000816000905550600101620001b0565b5090565b90565b610e6a80620001e16000396000f3fe608060405234801561001057600080fd5b50600436106100cf5760003560e01c806383b0b3c71161008c578063a2f9eac611610066578063a2f9eac614610508578063a3ec138d146105bd578063c3c5a54714610619578063ea87152b14610675576100cf565b806383b0b3c71461041a578063871c442d146104cc5780639e78f3ed146104ea576100cf565b80630121b93f146100d45780632d35a8a2146101025780632fc3a1fd146101205780633477ee2e146101ef578063358b9d97146102a4578063462e91ec1461035f575b600080fd5b610100600480360360208110156100ea57600080fd5b810190808035906020019092919050505061073a565b005b61010a61082d565b6040518082815260200191505060405180910390f35b6101d96004803603602081101561013657600080fd5b810190808035906020019064010000000081111561015357600080fd5b82018360208201111561016557600080fd5b8035906020019184600183028401116401000000008311171561018757600080fd5b91908080601f016020809104026020016040519081016040528093929190818152602001838380828437600081840152601f19601f820116905080830192505050505050509192919290505050610833565b6040518082815260200191505060405180910390f35b61021b6004803603602081101561020557600080fd5b8101908080359060200190929190505050610861565b6040518084815260200180602001838152602001828103825284818151815260200191508051906020019080838360005b8381101561026757808201518184015260208101905061024c565b50505050905090810190601f1680156102945780820380516001836020036101000a031916815260200191505b5094505050505060405180910390f35b61035d600480360360208110156102ba57600080fd5b81019080803590602001906401000000008111156102d757600080fd5b8201836020820111156102e957600080fd5b8035906020019184600183028401116401000000008311171561030b57600080fd5b91908080601f016020809104026020016040519081016040528093929190818152602001838380828437600081840152601f19601f820116905080830192505050505050509192919290505050610923565b005b6104186004803603602081101561037557600080fd5b810190808035906020019064010000000081111561039257600080fd5b8201836020820111156103a457600080fd5b803590602001918460018302840111640100000000831117156103c657600080fd5b91908080601f016020809104026020016040519081016040528093929190818152602001838380828437600081840152601f19601f8201169050808301925050505050505091929192905050506109a5565b005b6104466004803603602081101561043057600080fd5b8101908080359060200190929190505050610a21565b604051808060200183151515158152602001828103825284818151815260200191508051906020019080838360005b83811015610490578082015181840152602081019050610475565b50505050905090810190601f1680156104bd5780820380516001836020036101000a031916815260200191505b50935050505060405180910390f35b6104d4610aea565b6040518082815260200191505060405180910390f35b6104f2610af0565b6040518082815260200191505060405180910390f35b6105346004803603602081101561051e57600080fd5b8101908080359060200190929190505050610af6565b6040518084815260200180602001838152602001828103825284818151815260200191508051906020019080838360005b83811015610580578082015181840152602081019050610565565b50505050905090810190601f1680156105ad5780820380516001836020036101000a031916815260200191505b5094505050505060405180910390f35b6105ff600480360360208110156105d357600080fd5b81019080803573ffffffffffffffffffffffffffffffffffffffff169060200190929190505050610bb8565b604051808215151515815260200191505060405180910390f35b61065b6004803603602081101561062f57600080fd5b81019080803573ffffffffffffffffffffffffffffffffffffffff169060200190929190505050610bd8565b604051808215151515815260200191505060405180910390f35b6107386004803603604081101561068b57600080fd5b81019080803590602001906401000000008111156106a857600080fd5b8201836020820111156106ba57600080fd5b803590602001918460018302840111640100000000831117156106dc57600080fd5b91908080601f016020809104026020016040519081016040528093929190818152602001838380828437600081840152601f19601f82011690508083019250505050505050919291929080359060200190929190505050610bf8565b005b600360003373ffffffffffffffffffffffffffffffffffffffff1673ffffffffffffffffffffffffffffffffffffffff16815260200190815260200160002060009054906101000a900460ff161561079157600080fd5b6000811180156107a357506006548111155b6107ac57600080fd5b6001600360003373ffffffffffffffffffffffffffffffffffffffff1673ffffffffffffffffffffffffffffffffffffffff16815260200190815260200160002060006101000a81548160ff021916908315150217905550600560008281526020019081526020016000206002016000815480929190600101919050555050565b60065481565b6001818051602081018201805184825260208301602085012081835280955050505050506000915090505481565b6005602052806000526040600020600091509050806000015490806001018054600181600116156101000203166002900480601f0160208091040260200160405190810160405280929190818152602001828054600181600116156101000203166002900480156109135780601f106108e857610100808354040283529160200191610913565b820191906000526020600020905b8154815290600101906020018083116108f657829003601f168201915b5050505050908060020154905083565b600760008154809291906001019190505550604051806040016040528082815260200160001515815250600260006007548152602001908152602001600020600082015181600001908051906020019061097e929190610d90565b5060208201518160010160006101000a81548160ff02191690831515021790555090505050565b600660008154809291906001019190505550604051806060016040528060065481526020018281526020016000815250600560006006548152602001908152602001600020600082015181600001556020820151816001019080519060200190610a10929190610d90565b506040820151816002015590505050565b6002602052806000526040600020600091509050806000018054600181600116156101000203166002900480601f016020809104026020016040519081016040528092919081815260200182805460018160011615610100020316600290048015610acd5780601f10610aa257610100808354040283529160200191610acd565b820191906000526020600020905b815481529060010190602001808311610ab057829003601f168201915b5050505050908060010160009054906101000a900460ff16905082565b60085481565b60075481565b6000602052806000526040600020600091509050806000015490806001018054600181600116156101000203166002900480601f016020809104026020016040519081016040528092919081815260200182805460018160011615610100020316600290048015610ba85780601f10610b7d57610100808354040283529160200191610ba8565b820191906000526020600020905b815481529060010190602001808311610b8b57829003601f168201915b5050505050908060020154905083565b60036020528060005260406000206000915054906101000a900460ff1681565b60046020528060005260406000206000915054906101000a900460ff1681565b600460003373ffffffffffffffffffffffffffffffffffffffff1673ffffffffffffffffffffffffffffffffffffffff16815260200190815260200160002060009054906101000a900460ff1615610c4f57600080fd5b6001600460003373ffffffffffffffffffffffffffffffffffffffff1673ffffffffffffffffffffffffffffffffffffffff16815260200190815260200160002060006101000a81548160ff02191690831515021790555060086000815480929190600101919050555060405180606001604052806008548152602001838152602001828152506000806008548152602001908152602001600020600082015181600001556020820151816001019080519060200190610d10929190610d90565b5060408201518160020155905050806001836040518082805190602001908083835b60208310610d555780518252602082019150602081019050602083039250610d32565b6001836020036101000a0380198251168184511680821785525050505050509050019150509081526020016040518091039020819055505050565b828054600181600116156101000203166002900490600052602060002090601f016020900481019282601f10610dd157805160ff1916838001178555610dff565b82800160010185558215610dff579182015b82811115610dfe578251825591602001919060010190610de3565b5b509050610e0c9190610e10565b5090565b610e3291905b80821115610e2e576000816000905550600101610e16565b5090565b9056fea265627a7a72315820d5e0619923820f1bbd94bd29f8e8a12a96b8410965bea47cc3e709de3fbc313b64736f6c63430005100032",
  "source": "pragma solidity ^0.5.16; // remove '^' to lock the actual solidity version (to decrease security risks)\r\n\r\ncontract Election {\r\n    // // Store candidate\r\n    // // Read candidate\r\n    // string public candidate; // state variable - accessible inside contract (represent data that belongs to entire contract)\r\n    // // Constructor - smth that's gonna get run whenever contract is initialized upon migration\r\n    // constructor () public { // we use this for this ver, not the 'function Election () public' one\r\n    //     candidate = \"Nephia Dalisay\"; \r\n    // }\r\n\r\n    // // Model a Person\r\n        struct Person {\r\n            uint id;\r\n            string addr;\r\n            uint role;\r\n        }\r\n\r\n    // Model a Candidate\r\n        struct Candidate {\r\n            uint id;    // unsigned integer\r\n            string name;\r\n            uint voteCount;\r\n        }\r\n\r\n        struct Election_Instance {\r\n            string code;\r\n            bool ongoing;\r\n        }\r\n\r\n    // Store all people\r\n        mapping (uint => Person) public persons;\r\n        mapping (string => uint) public persons2;\r\n\r\n    // Store all election instances\r\n        mapping (uint => Election_Instance) public election_instances;\r\n\r\n    // Store accounts that have voted\r\n    // ~~~~~~~~~~~~~~~~~~~~~~~~~~~~~~\r\n    mapping(address => bool) public voters;\r\n        // mapping(string => Voter) public voters;\r\n\r\n    mapping(address => bool) public isRegistered;\r\n\r\n    // Store Candidate\r\n    // Fetch Candidate\r\n        mapping(uint => Candidate) public candidates; // mapping(_KeyType => _ValueType) public mappingName\r\n\r\n    // Store Candidates Count\r\n        uint public candidatesCount; //used to keep track of how many candidates there are (iterating not possible in Solidity)\r\n\r\n    // Election Instances Count\r\n        uint public electionInstancesCount;\r\n\r\n    // Persons Count\r\n        uint public personsCount;\r\n\r\n    // constructor function is responsible for initializing upon call of Election smart contract\r\n    constructor () public { // we use this for this ver, not the 'function Election () public' one\r\n        addCandidate(\"Nephia Dalisay!\");\r\n        addCandidate(\"Bianca Bueno!\");\r\n    }\r\n\r\n    function addCandidate (string memory _name) public {\r\n        candidatesCount ++;\r\n        candidates[candidatesCount] = Candidate(candidatesCount, _name, 0);\r\n    }\r\n\r\n    function addElection (string memory _code) public{\r\n        electionInstancesCount ++;\r\n        election_instances[electionInstancesCount] = Election_Instance(_code, false);\r\n    }\r\n\r\n    function register(string memory _addr, uint _role) public {\r\n        // require that they haven't registered before\r\n        require(!isRegistered[msg.sender]);\r\n        isRegistered[msg.sender] = true;\r\n        personsCount ++;\r\n        persons[personsCount] = Person(personsCount, _addr, _role);\r\n        persons2[_addr] = _role;\r\n    }\r\n\r\n    // function sign_in (string memory _addr) public {\r\n    //     require(!persons2[_addr]);\r\n    //     person_uint = persons2[_addr];\r\n    // }\r\n\r\n    function vote(uint _candidateId) public {\r\n        // require that they haven't voted before\r\n        require(!voters[msg.sender]);\r\n        // require a valid candidate\r\n        require(_candidateId > 0 && _candidateId <= candidatesCount);\r\n\r\n        // record that voter has voted\r\n        voters[msg.sender] = true; // msg.sender is x in 'from:x'\r\n\r\n        // update candidate vote count\r\n        candidates[_candidateId].voteCount ++;\r\n\r\n    }\r\n}",
  "sourcePath": "/mnt/c/Users/Nephia/NephFiles/Academics/Thesis/election/contracts/Election.sol",
  "compiler": {
    "name": "solc",
    "version": "0.5.16+commit.9c3226ce.Emscripten.clang"
  },
  "schemaVersion": "3.3.1",
  "updatedAt": "2021-04-12T05:27:50.665Z",
  "networkType": "ethereum",
  "devdoc": {
    "methods": {}
  },
  "userdoc": {
    "methods": {}
  }
}