{
  "contractName": "Election",
  "abi": [
    {
      "inputs": [],
      "payable": false,
      "stateMutability": "nonpayable",
      "type": "constructor"
    },
    {
      "constant": true,
      "inputs": [
        {
          "internalType": "uint256",
          "name": "",
          "type": "uint256"
        }
      ],
      "name": "candidates",
      "outputs": [
        {
          "internalType": "uint256",
          "name": "id",
          "type": "uint256"
        },
        {
          "internalType": "string",
          "name": "name",
          "type": "string"
        },
        {
          "internalType": "uint256",
          "name": "voteCount",
          "type": "uint256"
        }
      ],
      "payable": false,
      "stateMutability": "view",
      "type": "function"
    },
    {
      "constant": true,
      "inputs": [],
      "name": "candidatesCount",
      "outputs": [
        {
          "internalType": "uint256",
          "name": "",
          "type": "uint256"
        }
      ],
      "payable": false,
      "stateMutability": "view",
      "type": "function"
    },
    {
      "constant": true,
      "inputs": [],
      "name": "electionInstancesCount",
      "outputs": [
        {
          "internalType": "uint256",
          "name": "",
          "type": "uint256"
        }
      ],
      "payable": false,
      "stateMutability": "view",
      "type": "function"
    },
    {
      "constant": true,
      "inputs": [
        {
          "internalType": "uint256",
          "name": "",
          "type": "uint256"
        }
      ],
      "name": "election_instances",
      "outputs": [
        {
          "internalType": "string",
          "name": "code",
          "type": "string"
        },
        {
          "internalType": "bool",
          "name": "ongoing",
          "type": "bool"
        }
      ],
      "payable": false,
      "stateMutability": "view",
      "type": "function"
    },
    {
      "constant": true,
      "inputs": [
        {
          "internalType": "address",
          "name": "",
          "type": "address"
        }
      ],
      "name": "isRegistered",
      "outputs": [
        {
          "internalType": "bool",
          "name": "",
          "type": "bool"
        }
      ],
      "payable": false,
      "stateMutability": "view",
      "type": "function"
    },
    {
      "constant": true,
      "inputs": [
        {
          "internalType": "uint256",
          "name": "",
          "type": "uint256"
        }
      ],
      "name": "persons",
      "outputs": [
        {
          "internalType": "uint256",
          "name": "id",
          "type": "uint256"
        },
        {
          "internalType": "string",
          "name": "addr",
          "type": "string"
        },
        {
          "internalType": "uint256",
          "name": "role",
          "type": "uint256"
        }
      ],
      "payable": false,
      "stateMutability": "view",
      "type": "function"
    },
    {
      "constant": true,
      "inputs": [
        {
          "internalType": "string",
          "name": "",
          "type": "string"
        }
      ],
      "name": "persons2",
      "outputs": [
        {
          "internalType": "uint256",
          "name": "",
          "type": "uint256"
        }
      ],
      "payable": false,
      "stateMutability": "view",
      "type": "function"
    },
    {
      "constant": true,
      "inputs": [],
      "name": "personsCount",
      "outputs": [
        {
          "internalType": "uint256",
          "name": "",
          "type": "uint256"
        }
      ],
      "payable": false,
      "stateMutability": "view",
      "type": "function"
    },
    {
      "constant": true,
      "inputs": [
        {
          "internalType": "address",
          "name": "",
          "type": "address"
        }
      ],
      "name": "voters",
      "outputs": [
        {
          "internalType": "bool",
          "name": "",
          "type": "bool"
        }
      ],
      "payable": false,
      "stateMutability": "view",
      "type": "function"
    },
    {
      "constant": false,
      "inputs": [
        {
          "internalType": "string",
          "name": "_name",
          "type": "string"
        }
      ],
      "name": "addCandidate",
      "outputs": [],
      "payable": false,
      "stateMutability": "nonpayable",
      "type": "function"
    },
    {
      "constant": false,
      "inputs": [
        {
          "internalType": "string",
          "name": "_code",
          "type": "string"
        }
      ],
      "name": "addElection",
      "outputs": [],
      "payable": false,
      "stateMutability": "nonpayable",
      "type": "function"
    },
    {
      "constant": false,
      "inputs": [
        {
          "internalType": "string",
          "name": "_addr",
          "type": "string"
        },
        {
          "internalType": "uint256",
          "name": "_role",
          "type": "uint256"
        }
      ],
      "name": "register",
      "outputs": [],
      "payable": false,
      "stateMutability": "nonpayable",
      "type": "function"
    },
    {
      "constant": false,
      "inputs": [
        {
          "internalType": "string",
          "name": "_addr2",
          "type": "string"
        },
        {
          "internalType": "uint256",
          "name": "_role2",
          "type": "uint256"
        }
      ],
      "name": "addVoter",
      "outputs": [],
      "payable": false,
      "stateMutability": "nonpayable",
      "type": "function"
    },
    {
      "constant": false,
      "inputs": [
        {
          "internalType": "uint256",
          "name": "_candidateId",
          "type": "uint256"
        }
      ],
      "name": "vote",
      "outputs": [],
      "payable": false,
      "stateMutability": "nonpayable",
      "type": "function"
    },
    {
      "constant": false,
      "inputs": [
        {
          "internalType": "string",
          "name": "_a",
          "type": "string"
        }
      ],
      "name": "parseAddr",
      "outputs": [
        {
          "internalType": "address",
          "name": "_parsedAddress",
          "type": "address"
        }
      ],
      "payable": false,
      "stateMutability": "nonpayable",
      "type": "function"
    }
  ],
  "bytecode": "0x60806040523480156200001157600080fd5b50620000586040518060400160405280600f81526020017f4e65706869612044616c69736179210000000000000000000000000000000000815250620000a460201b60201c565b6200009e6040518060400160405280600d81526020017f4269616e6361204275656e6f2100000000000000000000000000000000000000815250620000a460201b60201c565b620001d1565b6006600081548092919060010191905055506040518060600160405280600654815260200182815260200160008152506005600060065481526020019081526020016000206000820151816000015560208201518160010190805190602001906200011192919062000122565b506040820151816002015590505050565b828054600181600116156101000203166002900490600052602060002090601f016020900481019282601f106200016557805160ff191683800117855562000196565b8280016001018555821562000196579182015b828111156200019557825182559160200191906001019062000178565b5b509050620001a59190620001a9565b5090565b620001ce91905b80821115620001ca576000816000905550600101620001b0565b5090565b90565b61145d80620001e16000396000f3fe608060405234801561001057600080fd5b50600436106100f55760003560e01c8063871c442d11610097578063a682318911610066578063a68231891461063f578063c3c5a5471461073a578063d2abaa5814610796578063ea87152b1461085b576100f5565b8063871c442d146104f25780639e78f3ed14610510578063a2f9eac61461052e578063a3ec138d146105e3576100f5565b80633477ee2e116100d35780633477ee2e14610215578063358b9d97146102ca578063462e91ec1461038557806383b0b3c714610440576100f5565b80630121b93f146100fa5780632d35a8a2146101285780632fc3a1fd14610146575b600080fd5b6101266004803603602081101561011057600080fd5b8101908080359060200190929190505050610920565b005b610130610a13565b6040518082815260200191505060405180910390f35b6101ff6004803603602081101561015c57600080fd5b810190808035906020019064010000000081111561017957600080fd5b82018360208201111561018b57600080fd5b803590602001918460018302840111640100000000831117156101ad57600080fd5b91908080601f016020809104026020016040519081016040528093929190818152602001838380828437600081840152601f19601f820116905080830192505050505050509192919290505050610a19565b6040518082815260200191505060405180910390f35b6102416004803603602081101561022b57600080fd5b8101908080359060200190929190505050610a47565b6040518084815260200180602001838152602001828103825284818151815260200191508051906020019080838360005b8381101561028d578082015181840152602081019050610272565b50505050905090810190601f1680156102ba5780820380516001836020036101000a031916815260200191505b5094505050505060405180910390f35b610383600480360360208110156102e057600080fd5b81019080803590602001906401000000008111156102fd57600080fd5b82018360208201111561030f57600080fd5b8035906020019184600183028401116401000000008311171561033157600080fd5b91908080601f016020809104026020016040519081016040528093929190818152602001838380828437600081840152601f19601f820116905080830192505050505050509192919290505050610b09565b005b61043e6004803603602081101561039b57600080fd5b81019080803590602001906401000000008111156103b857600080fd5b8201836020820111156103ca57600080fd5b803590602001918460018302840111640100000000831117156103ec57600080fd5b91908080601f016020809104026020016040519081016040528093929190818152602001838380828437600081840152601f19601f820116905080830192505050505050509192919290505050610b8b565b005b61046c6004803603602081101561045657600080fd5b8101908080359060200190929190505050610c07565b604051808060200183151515158152602001828103825284818151815260200191508051906020019080838360005b838110156104b657808201518184015260208101905061049b565b50505050905090810190601f1680156104e35780820380516001836020036101000a031916815260200191505b50935050505060405180910390f35b6104fa610cd0565b6040518082815260200191505060405180910390f35b610518610cd6565b6040518082815260200191505060405180910390f35b61055a6004803603602081101561054457600080fd5b8101908080359060200190929190505050610cdc565b6040518084815260200180602001838152602001828103825284818151815260200191508051906020019080838360005b838110156105a657808201518184015260208101905061058b565b50505050905090810190601f1680156105d35780820380516001836020036101000a031916815260200191505b5094505050505060405180910390f35b610625600480360360208110156105f957600080fd5b81019080803573ffffffffffffffffffffffffffffffffffffffff169060200190929190505050610d9e565b604051808215151515815260200191505060405180910390f35b6106f86004803603602081101561065557600080fd5b810190808035906020019064010000000081111561067257600080fd5b82018360208201111561068457600080fd5b803590602001918460018302840111640100000000831117156106a657600080fd5b91908080601f016020809104026020016040519081016040528093929190818152602001838380828437600081840152601f19601f820116905080830192505050505050509192919290505050610dbe565b604051808273ffffffffffffffffffffffffffffffffffffffff1673ffffffffffffffffffffffffffffffffffffffff16815260200191505060405180910390f35b61077c6004803603602081101561075057600080fd5b81019080803573ffffffffffffffffffffffffffffffffffffffff169060200190929190505050611017565b604051808215151515815260200191505060405180910390f35b610859600480360360408110156107ac57600080fd5b81019080803590602001906401000000008111156107c957600080fd5b8201836020820111156107db57600080fd5b803590602001918460018302840111640100000000831117156107fd57600080fd5b91908080601f016020809104026020016040519081016040528093929190818152602001838380828437600081840152601f19601f82011690508083019250505050505050919291929080359060200190929190505050611037565b005b61091e6004803603604081101561087157600080fd5b810190808035906020019064010000000081111561088e57600080fd5b8201836020820111156108a057600080fd5b803590602001918460018302840111640100000000831117156108c257600080fd5b91908080601f016020809104026020016040519081016040528093929190818152602001838380828437600081840152601f19601f820116905080830192505050505050509192919290803590602001909291905050506111dd565b005b600360003373ffffffffffffffffffffffffffffffffffffffff1673ffffffffffffffffffffffffffffffffffffffff16815260200190815260200160002060009054906101000a900460ff161561097757600080fd5b60008111801561098957506006548111155b61099257600080fd5b6001600360003373ffffffffffffffffffffffffffffffffffffffff1673ffffffffffffffffffffffffffffffffffffffff16815260200190815260200160002060006101000a81548160ff021916908315150217905550600560008281526020019081526020016000206002016000815480929190600101919050555050565b60065481565b6001818051602081018201805184825260208301602085012081835280955050505050506000915090505481565b6005602052806000526040600020600091509050806000015490806001018054600181600116156101000203166002900480601f016020809104026020016040519081016040528092919081815260200182805460018160011615610100020316600290048015610af95780601f10610ace57610100808354040283529160200191610af9565b820191906000526020600020905b815481529060010190602001808311610adc57829003601f168201915b5050505050908060020154905083565b6007600081548092919060010191905055506040518060400160405280828152602001600015158152506002600060075481526020019081526020016000206000820151816000019080519060200190610b64929190611383565b5060208201518160010160006101000a81548160ff02191690831515021790555090505050565b600660008154809291906001019190505550604051806060016040528060065481526020018281526020016000815250600560006006548152602001908152602001600020600082015181600001556020820151816001019080519060200190610bf6929190611383565b506040820151816002015590505050565b6002602052806000526040600020600091509050806000018054600181600116156101000203166002900480601f016020809104026020016040519081016040528092919081815260200182805460018160011615610100020316600290048015610cb35780601f10610c8857610100808354040283529160200191610cb3565b820191906000526020600020905b815481529060010190602001808311610c9657829003601f168201915b5050505050908060010160009054906101000a900460ff16905082565b60085481565b60075481565b6000602052806000526040600020600091509050806000015490806001018054600181600116156101000203166002900480601f016020809104026020016040519081016040528092919081815260200182805460018160011615610100020316600290048015610d8e5780601f10610d6357610100808354040283529160200191610d8e565b820191906000526020600020905b815481529060010190602001808311610d7157829003601f168201915b5050505050908060020154905083565b60036020528060005260406000206000915054906101000a900460ff1681565b6000606082905060008090506000806000600290505b602a81101561100a5761010084029350848181518110610df057fe5b602001015160f81c60f81b60f81c60ff169250846001820181518110610e1257fe5b602001015160f81c60f81b60f81c60ff16915060618373ffffffffffffffffffffffffffffffffffffffff1610158015610e63575060668373ffffffffffffffffffffffffffffffffffffffff1611155b15610e7357605783039250610f0d565b60418373ffffffffffffffffffffffffffffffffffffffff1610158015610eb1575060468373ffffffffffffffffffffffffffffffffffffffff1611155b15610ec157603783039250610f0c565b60308373ffffffffffffffffffffffffffffffffffffffff1610158015610eff575060398373ffffffffffffffffffffffffffffffffffffffff1611155b15610f0b576030830392505b5b5b60618273ffffffffffffffffffffffffffffffffffffffff1610158015610f4b575060668273ffffffffffffffffffffffffffffffffffffffff1611155b15610f5b57605782039150610ff5565b60418273ffffffffffffffffffffffffffffffffffffffff1610158015610f99575060468273ffffffffffffffffffffffffffffffffffffffff1611155b15610fa957603782039150610ff4565b60308273ffffffffffffffffffffffffffffffffffffffff1610158015610fe7575060398273ffffffffffffffffffffffffffffffffffffffff1611155b15610ff3576030820391505b5b5b81601084020184019350600281019050610dd4565b5082945050505050919050565b60046020528060005260406000206000915054906101000a900460ff1681565b600061104283610dbe565b9050600460008273ffffffffffffffffffffffffffffffffffffffff1673ffffffffffffffffffffffffffffffffffffffff16815260200190815260200160002060009054906101000a900460ff161561109b57600080fd5b6001600460008373ffffffffffffffffffffffffffffffffffffffff1673ffffffffffffffffffffffffffffffffffffffff16815260200190815260200160002060006101000a81548160ff0219169083151502179055506008600081548092919060010191905055506040518060600160405280600854815260200184815260200183815250600080600854815260200190815260200160002060008201518160000155602082015181600101908051906020019061115c929190611383565b5060408201518160020155905050816001846040518082805190602001908083835b602083106111a1578051825260208201915060208101905060208303925061117e565b6001836020036101000a038019825116818451168082178552505050505050905001915050908152602001604051809103902081905550505050565b60006111e883610dbe565b9050600460008273ffffffffffffffffffffffffffffffffffffffff1673ffffffffffffffffffffffffffffffffffffffff16815260200190815260200160002060009054906101000a900460ff161561124157600080fd5b6001600460008373ffffffffffffffffffffffffffffffffffffffff1673ffffffffffffffffffffffffffffffffffffffff16815260200190815260200160002060006101000a81548160ff02191690831515021790555060086000815480929190600101919050555060405180606001604052806008548152602001848152602001838152506000806008548152602001908152602001600020600082015181600001556020820151816001019080519060200190611302929190611383565b5060408201518160020155905050816001846040518082805190602001908083835b602083106113475780518252602082019150602081019050602083039250611324565b6001836020036101000a038019825116818451168082178552505050505050905001915050908152602001604051809103902081905550505050565b828054600181600116156101000203166002900490600052602060002090601f016020900481019282601f106113c457805160ff19168380011785556113f2565b828001600101855582156113f2579182015b828111156113f15782518255916020019190600101906113d6565b5b5090506113ff9190611403565b5090565b61142591905b80821115611421576000816000905550600101611409565b5090565b9056fea265627a7a72315820e49ff9169125d35b62974e380687ace16ce9cbe029daaeee0827930a1348584b64736f6c63430005100032",
  "source": "pragma solidity ^0.5.16; // remove '^' to lock the actual solidity version (to decrease security risks)\r\n\r\ncontract Election {\r\n    // // Store candidate\r\n    // // Read candidate\r\n    // string public candidate; // state variable - accessible inside contract (represent data that belongs to entire contract)\r\n    // // Constructor - smth that's gonna get run whenever contract is initialized upon migration\r\n    // constructor () public { // we use this for this ver, not the 'function Election () public' one\r\n    //     candidate = \"Nephia Dalisay\"; \r\n    // }\r\n\r\n    // // Model a Person\r\n        struct Person {\r\n            uint id;\r\n            string addr;\r\n            uint role;\r\n        }\r\n\r\n    // Model a Candidate\r\n        struct Candidate {\r\n            uint id;    // unsigned integer\r\n            string name;\r\n            uint voteCount;\r\n        }\r\n\r\n        struct Election_Instance {\r\n            string code;\r\n            bool ongoing;\r\n        }\r\n\r\n    // Store all people\r\n        mapping (uint => Person) public persons;\r\n        mapping (string => uint) public persons2; // address => role_num \r\n\r\n    // Store all election instances\r\n        mapping (uint => Election_Instance) public election_instances;\r\n\r\n    // Store accounts that have voted\r\n    // ~~~~~~~~~~~~~~~~~~~~~~~~~~~~~~\r\n    mapping(address => bool) public voters;\r\n        // mapping(string => Voter) public voters;\r\n\r\n    mapping(address => bool) public isRegistered;\r\n\r\n    // Store Candidate\r\n    // Fetch Candidate\r\n        mapping(uint => Candidate) public candidates; // mapping(_KeyType => _ValueType) public mappingName\r\n\r\n    // Store Candidates Count\r\n        uint public candidatesCount; //used to keep track of how many candidates there are (iterating not possible in Solidity)\r\n\r\n    // Election Instances Count\r\n        uint public electionInstancesCount;\r\n\r\n    // Persons Count\r\n        uint public personsCount;\r\n\r\n    // constructor function is responsible for initializing upon call of Election smart contract\r\n    constructor () public { // we use this for this ver, not the 'function Election () public' one\r\n        addCandidate(\"Nephia Dalisay!\");\r\n        addCandidate(\"Bianca Bueno!\");\r\n    }\r\n\r\n    function addCandidate (string memory _name) public {\r\n        candidatesCount ++;\r\n        candidates[candidatesCount] = Candidate(candidatesCount, _name, 0);\r\n    }\r\n\r\n    function addElection (string memory _code) public{\r\n        electionInstancesCount ++;\r\n        election_instances[electionInstancesCount] = Election_Instance(_code, false);\r\n    }\r\n\r\n    function register(string memory _addr, uint _role) public {        \r\n        address myAddress_addr = parseAddr(_addr);\r\n        // require that they haven't registered before\r\n        require(!isRegistered[myAddress_addr]);\r\n        isRegistered[myAddress_addr] = true;\r\n        personsCount ++;\r\n        persons[personsCount] = Person(personsCount, _addr, _role);\r\n        persons2[_addr] = _role;\r\n    }\r\n\r\n    function addVoter(string memory _addr2, uint _role2) public {        \r\n        address myAddress_addr = parseAddr(_addr2);\r\n        // string myAddress_str = _addr;\r\n        \r\n        require(!isRegistered[myAddress_addr]);\r\n        isRegistered[myAddress_addr] = true;\r\n        personsCount ++;\r\n        persons[personsCount] = Person(personsCount, _addr2, _role2);\r\n        persons2[_addr2] = _role2;\r\n    }\r\n\r\n    // function addDB(string memory _addr3, uint _role3) public {\r\n    //     persons2[_addr3] = _role3;\r\n    // }\r\n\r\n    // function sign_in (string memory _addr) public {\r\n    //     require(!persons2[_addr]);\r\n    //     person_uint = persons2[_addr];\r\n    // }\r\n\r\n    function vote(uint _candidateId) public {\r\n        // require that they haven't voted before\r\n        require(!voters[msg.sender]);\r\n        // require a valid candidate\r\n        require(_candidateId > 0 && _candidateId <= candidatesCount);\r\n\r\n        // record that voter has voted\r\n        voters[msg.sender] = true; // msg.sender is x in 'from:x'\r\n\r\n        // update candidate vote count\r\n        candidates[_candidateId].voteCount ++;\r\n\r\n    }\r\n\r\n    function parseAddr(string memory _a) public returns (address _parsedAddress) {\r\n        bytes memory tmp = bytes(_a);\r\n        uint160 iaddr = 0;\r\n        uint160 b1;\r\n        uint160 b2;\r\n        for (uint i = 2; i < 2 + 2 * 20; i += 2) {\r\n            iaddr *= 256;\r\n            b1 = uint160(uint8(tmp[i]));\r\n            b2 = uint160(uint8(tmp[i + 1]));\r\n            if ((b1 >= 97) && (b1 <= 102)) {\r\n                b1 -= 87;\r\n            } else if ((b1 >= 65) && (b1 <= 70)) {\r\n                b1 -= 55;\r\n            } else if ((b1 >= 48) && (b1 <= 57)) {\r\n                b1 -= 48;\r\n            }\r\n            if ((b2 >= 97) && (b2 <= 102)) {\r\n                b2 -= 87;\r\n            } else if ((b2 >= 65) && (b2 <= 70)) {\r\n                b2 -= 55;\r\n            } else if ((b2 >= 48) && (b2 <= 57)) {\r\n                b2 -= 48;\r\n            }\r\n            iaddr += (b1 * 16 + b2);\r\n        }\r\n        return address(iaddr);\r\n}\r\n\r\n}",
  "sourcePath": "/mnt/c/Users/Nephia/NephFiles/Academics/Thesis/election/contracts/Election.sol",
  "compiler": {
    "name": "solc",
    "version": "0.5.16+commit.9c3226ce.Emscripten.clang"
  },
  "schemaVersion": "3.3.1",
  "updatedAt": "2021-04-19T08:55:46.185Z",
  "networkType": "ethereum",
  "devdoc": {
    "methods": {}
  },
  "userdoc": {
    "methods": {}
  }
}