{
  "contractName": "Election",
  "abi": [
    {
      "inputs": [],
      "payable": false,
      "stateMutability": "nonpayable",
      "type": "constructor"
    },
    {
      "constant": true,
      "inputs": [
        {
          "internalType": "address",
          "name": "",
          "type": "address"
        },
        {
          "internalType": "uint256",
          "name": "",
          "type": "uint256"
        }
      ],
      "name": "allVoteArrays",
      "outputs": [
        {
          "internalType": "uint256",
          "name": "",
          "type": "uint256"
        }
      ],
      "payable": false,
      "stateMutability": "view",
      "type": "function"
    },
    {
      "constant": true,
      "inputs": [],
      "name": "allVoteArraysCounter",
      "outputs": [
        {
          "internalType": "uint256",
          "name": "",
          "type": "uint256"
        }
      ],
      "payable": false,
      "stateMutability": "view",
      "type": "function"
    },
    {
      "constant": true,
      "inputs": [
        {
          "internalType": "uint256",
          "name": "",
          "type": "uint256"
        }
      ],
      "name": "allVoteArraysIndex",
      "outputs": [
        {
          "internalType": "address",
          "name": "",
          "type": "address"
        }
      ],
      "payable": false,
      "stateMutability": "view",
      "type": "function"
    },
    {
      "constant": true,
      "inputs": [],
      "name": "allVotesCount",
      "outputs": [
        {
          "internalType": "uint256",
          "name": "",
          "type": "uint256"
        }
      ],
      "payable": false,
      "stateMutability": "view",
      "type": "function"
    },
    {
      "constant": true,
      "inputs": [
        {
          "internalType": "uint256",
          "name": "",
          "type": "uint256"
        }
      ],
      "name": "candidates",
      "outputs": [
        {
          "internalType": "uint256",
          "name": "id",
          "type": "uint256"
        },
        {
          "internalType": "string",
          "name": "name",
          "type": "string"
        },
        {
          "internalType": "uint256",
          "name": "voteCount",
          "type": "uint256"
        }
      ],
      "payable": false,
      "stateMutability": "view",
      "type": "function"
    },
    {
      "constant": true,
      "inputs": [],
      "name": "candidatesCount",
      "outputs": [
        {
          "internalType": "uint256",
          "name": "",
          "type": "uint256"
        }
      ],
      "payable": false,
      "stateMutability": "view",
      "type": "function"
    },
    {
      "constant": true,
      "inputs": [],
      "name": "electionInstancesCount",
      "outputs": [
        {
          "internalType": "uint256",
          "name": "",
          "type": "uint256"
        }
      ],
      "payable": false,
      "stateMutability": "view",
      "type": "function"
    },
    {
      "constant": true,
      "inputs": [
        {
          "internalType": "uint256",
          "name": "",
          "type": "uint256"
        }
      ],
      "name": "election_instances",
      "outputs": [
        {
          "internalType": "string",
          "name": "code",
          "type": "string"
        },
        {
          "internalType": "bool",
          "name": "ongoing",
          "type": "bool"
        }
      ],
      "payable": false,
      "stateMutability": "view",
      "type": "function"
    },
    {
      "constant": true,
      "inputs": [
        {
          "internalType": "address",
          "name": "",
          "type": "address"
        }
      ],
      "name": "isRegistered",
      "outputs": [
        {
          "internalType": "bool",
          "name": "",
          "type": "bool"
        }
      ],
      "payable": false,
      "stateMutability": "view",
      "type": "function"
    },
    {
      "constant": true,
      "inputs": [
        {
          "internalType": "uint256",
          "name": "",
          "type": "uint256"
        }
      ],
      "name": "myVotes",
      "outputs": [
        {
          "internalType": "address",
          "name": "",
          "type": "address"
        }
      ],
      "payable": false,
      "stateMutability": "view",
      "type": "function"
    },
    {
      "constant": true,
      "inputs": [
        {
          "internalType": "address",
          "name": "",
          "type": "address"
        }
      ],
      "name": "myVotes2",
      "outputs": [
        {
          "internalType": "string",
          "name": "",
          "type": "string"
        }
      ],
      "payable": false,
      "stateMutability": "view",
      "type": "function"
    },
    {
      "constant": true,
      "inputs": [
        {
          "internalType": "uint256",
          "name": "",
          "type": "uint256"
        }
      ],
      "name": "persons",
      "outputs": [
        {
          "internalType": "uint256",
          "name": "id",
          "type": "uint256"
        },
        {
          "internalType": "string",
          "name": "addr",
          "type": "string"
        },
        {
          "internalType": "uint256",
          "name": "role",
          "type": "uint256"
        }
      ],
      "payable": false,
      "stateMutability": "view",
      "type": "function"
    },
    {
      "constant": true,
      "inputs": [
        {
          "internalType": "string",
          "name": "",
          "type": "string"
        }
      ],
      "name": "persons2",
      "outputs": [
        {
          "internalType": "uint256",
          "name": "",
          "type": "uint256"
        }
      ],
      "payable": false,
      "stateMutability": "view",
      "type": "function"
    },
    {
      "constant": true,
      "inputs": [],
      "name": "personsCount",
      "outputs": [
        {
          "internalType": "uint256",
          "name": "",
          "type": "uint256"
        }
      ],
      "payable": false,
      "stateMutability": "view",
      "type": "function"
    },
    {
      "constant": true,
      "inputs": [
        {
          "internalType": "address",
          "name": "",
          "type": "address"
        }
      ],
      "name": "voters",
      "outputs": [
        {
          "internalType": "bool",
          "name": "",
          "type": "bool"
        }
      ],
      "payable": false,
      "stateMutability": "view",
      "type": "function"
    },
    {
      "constant": false,
      "inputs": [
        {
          "internalType": "string",
          "name": "_name",
          "type": "string"
        }
      ],
      "name": "addCandidate",
      "outputs": [],
      "payable": false,
      "stateMutability": "nonpayable",
      "type": "function"
    },
    {
      "constant": false,
      "inputs": [
        {
          "internalType": "string",
          "name": "_code",
          "type": "string"
        }
      ],
      "name": "addElection",
      "outputs": [],
      "payable": false,
      "stateMutability": "nonpayable",
      "type": "function"
    },
    {
      "constant": false,
      "inputs": [
        {
          "internalType": "string",
          "name": "_addr",
          "type": "string"
        },
        {
          "internalType": "uint256",
          "name": "_role",
          "type": "uint256"
        }
      ],
      "name": "register",
      "outputs": [],
      "payable": false,
      "stateMutability": "nonpayable",
      "type": "function"
    },
    {
      "constant": false,
      "inputs": [
        {
          "internalType": "string",
          "name": "_addr2",
          "type": "string"
        },
        {
          "internalType": "uint256",
          "name": "_role2",
          "type": "uint256"
        }
      ],
      "name": "addVoter",
      "outputs": [],
      "payable": false,
      "stateMutability": "nonpayable",
      "type": "function"
    },
    {
      "constant": false,
      "inputs": [
        {
          "internalType": "uint256",
          "name": "_candidateId",
          "type": "uint256"
        },
        {
          "internalType": "string",
          "name": "_votersvote",
          "type": "string"
        },
        {
          "internalType": "uint256[]",
          "name": "_votearray",
          "type": "uint256[]"
        }
      ],
      "name": "vote",
      "outputs": [],
      "payable": false,
      "stateMutability": "nonpayable",
      "type": "function"
    },
    {
      "constant": false,
      "inputs": [
        {
          "internalType": "string",
          "name": "_a",
          "type": "string"
        }
      ],
      "name": "parseAddr",
      "outputs": [
        {
          "internalType": "address",
          "name": "_parsedAddress",
          "type": "address"
        }
      ],
      "payable": false,
      "stateMutability": "nonpayable",
      "type": "function"
    }
  ],
  "bytecode": "0x60806040523480156200001157600080fd5b50620000586040518060400160405280600f81526020017f4e65706869612044616c69736179210000000000000000000000000000000000815250620000a460201b60201c565b6200009e6040518060400160405280600d81526020017f4269616e6361204275656e6f2100000000000000000000000000000000000000815250620000a460201b60201c565b620001d1565b600a600081548092919060010191905055506040518060600160405280600a548152602001828152602001600081525060096000600a5481526020019081526020016000206000820151816000015560208201518160010190805190602001906200011192919062000122565b506040820151816002015590505050565b828054600181600116156101000203166002900490600052602060002090601f016020900481019282601f106200016557805160ff191683800117855562000196565b8280016001018555821562000196579182015b828111156200019557825182559160200191906001019062000178565b5b509050620001a59190620001a9565b5090565b620001ce91905b80821115620001ca576000816000905550600101620001b0565b5090565b90565b61192a80620001e16000396000f3fe608060405234801561001057600080fd5b50600436106101375760003560e01c8063932f925f116100b8578063bc1c56d51161007c578063bc1c56d5146103a1578063c3c5a547146103bd578063d2abaa58146103ed578063e8446b3814610409578063ea87152b14610439578063f38edb3c1461045557610137565b8063932f925f146102c15780639e78f3ed146102f1578063a2f9eac61461030f578063a3ec138d14610341578063a68231891461037157610137565b8063462e91ec116100ff578063462e91ec1461020857806369d9ebb21461022457806370dc66f31461025457806383b0b3c714610272578063871c442d146102a357610137565b806305c462b81461013c5780632d35a8a21461016c5780632fc3a1fd1461018a5780633477ee2e146101ba578063358b9d97146101ec575b600080fd5b610156600480360361015191908101906113cd565b610473565b6040516101639190611694565b60405180910390f35b610174610523565b60405161018191906116e6565b60405180910390f35b6101a4600480360361019f9190810190611432565b610529565b6040516101b191906116e6565b60405180910390f35b6101d460048036036101cf9190810190611508565b610557565b6040516101e393929190611701565b60405180910390f35b61020660048036036102019190810190611473565b610619565b005b610222600480360361021d9190810190611473565b61069b565b005b61023e600480360361023991908101906113f6565b610717565b60405161024b91906116e6565b60405180910390f35b61025c610745565b60405161026991906116e6565b60405180910390f35b61028c60048036036102879190810190611508565b61074b565b60405161029a9291906116b6565b60405180910390f35b6102ab610814565b6040516102b891906116e6565b60405180910390f35b6102db60048036036102d69190810190611508565b61081a565b6040516102e8919061165e565b60405180910390f35b6102f961084d565b60405161030691906116e6565b60405180910390f35b61032960048036036103249190810190611508565b610853565b60405161033893929190611701565b60405180910390f35b61035b600480360361035691908101906113cd565b610915565b6040516103689190611679565b60405180910390f35b61038b60048036036103869190810190611473565b610935565b604051610398919061165e565b60405180910390f35b6103bb60048036036103b69190810190611531565b610b8e565b005b6103d760048036036103d291908101906113cd565b610df7565b6040516103e49190611679565b60405180910390f35b610407600480360361040291908101906114b4565b610e17565b005b610423600480360361041e9190810190611508565b610f72565b604051610430919061165e565b60405180910390f35b610453600480360361044e91908101906114b4565b610fa5565b005b61045d611100565b60405161046a91906116e6565b60405180910390f35b60066020528060005260406000206000915090508054600181600116156101000203166002900480601f01602080910402602001604051908101604052809291908181526020018280546001816001161561010002031660029004801561051b5780601f106104f05761010080835404028352916020019161051b565b820191906000526020600020905b8154815290600101906020018083116104fe57829003601f168201915b505050505081565b600a5481565b6001818051602081018201805184825260208301602085012081835280955050505050506000915090505481565b6009602052806000526040600020600091509050806000015490806001018054600181600116156101000203166002900480601f0160208091040260200160405190810160405280929190818152602001828054600181600116156101000203166002900480156106095780601f106105de57610100808354040283529160200191610609565b820191906000526020600020905b8154815290600101906020018083116105ec57829003601f168201915b5050505050908060020154905083565b600e6000815480929190600101919050555060405180604001604052808281526020016000151581525060026000600e5481526020019081526020016000206000820151816000019080519060200190610674929190611106565b5060208201518160010160006101000a81548160ff02191690831515021790555090505050565b600a600081548092919060010191905055506040518060600160405280600a548152602001828152602001600081525060096000600a548152602001908152602001600020600082015181600001556020820151816001019080519060200190610706929190611106565b506040820151816002015590505050565b6008602052816000526040600020818154811061073057fe5b90600052602060002001600091509150505481565b600b5481565b6002602052806000526040600020600091509050806000018054600181600116156101000203166002900480601f0160208091040260200160405190810160405280929190818152602001828054600181600116156101000203166002900480156107f75780601f106107cc576101008083540402835291602001916107f7565b820191906000526020600020905b8154815290600101906020018083116107da57829003601f168201915b5050505050908060010160009054906101000a900460ff16905082565b600f5481565b60056020528060005260406000206000915054906101000a900473ffffffffffffffffffffffffffffffffffffffff1681565b600e5481565b6000602052806000526040600020600091509050806000015490806001018054600181600116156101000203166002900480601f0160208091040260200160405190810160405280929190818152602001828054600181600116156101000203166002900480156109055780601f106108da57610100808354040283529160200191610905565b820191906000526020600020905b8154815290600101906020018083116108e857829003601f168201915b5050505050908060020154905083565b60036020528060005260406000206000915054906101000a900460ff1681565b6000606082905060008090506000806000600290505b602a811015610b81576101008402935084818151811061096757fe5b602001015160f81c60f81b60f81c60ff16925084600182018151811061098957fe5b602001015160f81c60f81b60f81c60ff16915060618373ffffffffffffffffffffffffffffffffffffffff16101580156109da575060668373ffffffffffffffffffffffffffffffffffffffff1611155b156109ea57605783039250610a84565b60418373ffffffffffffffffffffffffffffffffffffffff1610158015610a28575060468373ffffffffffffffffffffffffffffffffffffffff1611155b15610a3857603783039250610a83565b60308373ffffffffffffffffffffffffffffffffffffffff1610158015610a76575060398373ffffffffffffffffffffffffffffffffffffffff1611155b15610a82576030830392505b5b5b60618273ffffffffffffffffffffffffffffffffffffffff1610158015610ac2575060668273ffffffffffffffffffffffffffffffffffffffff1611155b15610ad257605782039150610b6c565b60418273ffffffffffffffffffffffffffffffffffffffff1610158015610b10575060468273ffffffffffffffffffffffffffffffffffffffff1611155b15610b2057603782039150610b6b565b60308273ffffffffffffffffffffffffffffffffffffffff1610158015610b5e575060398273ffffffffffffffffffffffffffffffffffffffff1611155b15610b6a576030820391505b5b5b8160108402018401935060028101905061094b565b5082945050505050919050565b600360003373ffffffffffffffffffffffffffffffffffffffff1673ffffffffffffffffffffffffffffffffffffffff16815260200190815260200160002060009054906101000a900460ff1615610be557600080fd5b600083118015610bf75750600a548311155b610c0057600080fd5b6001600360003373ffffffffffffffffffffffffffffffffffffffff1673ffffffffffffffffffffffffffffffffffffffff16815260200190815260200160002060006101000a81548160ff021916908315150217905550600b600081548092919060010191905055503360056000600b54815260200190815260200160002060006101000a81548173ffffffffffffffffffffffffffffffffffffffff021916908373ffffffffffffffffffffffffffffffffffffffff16021790555081600660003373ffffffffffffffffffffffffffffffffffffffff1673ffffffffffffffffffffffffffffffffffffffff1681526020019081526020016000209080519060200190610d11929190611186565b50600c600081548092919060010191905055503360076000600c54815260200190815260200160002060006101000a81548173ffffffffffffffffffffffffffffffffffffffff021916908373ffffffffffffffffffffffffffffffffffffffff16021790555080600860003373ffffffffffffffffffffffffffffffffffffffff1673ffffffffffffffffffffffffffffffffffffffff1681526020019081526020016000209080519060200190610dcb929190611206565b506009600084815260200190815260200160002060020160008154809291906001019190505550505050565b60046020528060005260406000206000915054906101000a900460ff1681565b6000610e2283610935565b9050600460008273ffffffffffffffffffffffffffffffffffffffff1673ffffffffffffffffffffffffffffffffffffffff16815260200190815260200160002060009054906101000a900460ff1615610e7b57600080fd5b6001600460008373ffffffffffffffffffffffffffffffffffffffff1673ffffffffffffffffffffffffffffffffffffffff16815260200190815260200160002060006101000a81548160ff021916908315150217905550600f600081548092919060010191905055506040518060600160405280600f54815260200184815260200183815250600080600f548152602001908152602001600020600082015181600001556020820151816001019080519060200190610f3c929190611106565b506040820151816002015590505081600184604051610f5b9190611647565b908152602001604051809103902081905550505050565b60076020528060005260406000206000915054906101000a900473ffffffffffffffffffffffffffffffffffffffff1681565b6000610fb083610935565b9050600460008273ffffffffffffffffffffffffffffffffffffffff1673ffffffffffffffffffffffffffffffffffffffff16815260200190815260200160002060009054906101000a900460ff161561100957600080fd5b6001600460008373ffffffffffffffffffffffffffffffffffffffff1673ffffffffffffffffffffffffffffffffffffffff16815260200190815260200160002060006101000a81548160ff021916908315150217905550600f600081548092919060010191905055506040518060600160405280600f54815260200184815260200183815250600080600f5481526020019081526020016000206000820151816000015560208201518160010190805190602001906110ca929190611106565b5060408201518160020155905050816001846040516110e99190611647565b908152602001604051809103902081905550505050565b600c5481565b828054600181600116156101000203166002900490600052602060002090601f016020900481019282601f1061114757805160ff1916838001178555611175565b82800160010185558215611175579182015b82811115611174578251825591602001919060010190611159565b5b5090506111829190611253565b5090565b828054600181600116156101000203166002900490600052602060002090601f016020900481019282601f106111c757805160ff19168380011785556111f5565b828001600101855582156111f5579182015b828111156111f45782518255916020019190600101906111d9565b5b5090506112029190611253565b5090565b828054828255906000526020600020908101928215611242579160200282015b82811115611241578251825591602001919060010190611226565b5b50905061124f9190611253565b5090565b61127591905b80821115611271576000816000905550600101611259565b5090565b90565b600081359050611287816118b9565b92915050565b600082601f83011261129e57600080fd5b81356112b16112ac8261176c565b61173f565b915081818352602084019350602081019050838560208402820111156112d657600080fd5b60005b8381101561130657816112ec88826113b8565b8452602084019350602083019250506001810190506112d9565b5050505092915050565b600082601f83011261132157600080fd5b813561133461132f82611794565b61173f565b9150808252602083016020830185838301111561135057600080fd5b61135b838284611866565b50505092915050565b600082601f83011261137557600080fd5b8135611388611383826117c0565b61173f565b915080825260208301602083018583830111156113a457600080fd5b6113af838284611866565b50505092915050565b6000813590506113c7816118d0565b92915050565b6000602082840312156113df57600080fd5b60006113ed84828501611278565b91505092915050565b6000806040838503121561140957600080fd5b600061141785828601611278565b9250506020611428858286016113b8565b9150509250929050565b60006020828403121561144457600080fd5b600082013567ffffffffffffffff81111561145e57600080fd5b61146a84828501611310565b91505092915050565b60006020828403121561148557600080fd5b600082013567ffffffffffffffff81111561149f57600080fd5b6114ab84828501611364565b91505092915050565b600080604083850312156114c757600080fd5b600083013567ffffffffffffffff8111156114e157600080fd5b6114ed85828601611364565b92505060206114fe858286016113b8565b9150509250929050565b60006020828403121561151a57600080fd5b6000611528848285016113b8565b91505092915050565b60008060006060848603121561154657600080fd5b6000611554868287016113b8565b935050602084013567ffffffffffffffff81111561157157600080fd5b61157d86828701611364565b925050604084013567ffffffffffffffff81111561159a57600080fd5b6115a68682870161128d565b9150509250925092565b6115b98161181e565b82525050565b6115c881611830565b82525050565b60006115d9826117f7565b6115e38185611813565b93506115f3818560208601611875565b80840191505092915050565b600061160a826117ec565b6116148185611802565b9350611624818560208601611875565b61162d816118a8565b840191505092915050565b6116418161185c565b82525050565b600061165382846115ce565b915081905092915050565b600060208201905061167360008301846115b0565b92915050565b600060208201905061168e60008301846115bf565b92915050565b600060208201905081810360008301526116ae81846115ff565b905092915050565b600060408201905081810360008301526116d081856115ff565b90506116df60208301846115bf565b9392505050565b60006020820190506116fb6000830184611638565b92915050565b60006060820190506117166000830186611638565b818103602083015261172881856115ff565b90506117376040830184611638565b949350505050565b6000604051905081810181811067ffffffffffffffff8211171561176257600080fd5b8060405250919050565b600067ffffffffffffffff82111561178357600080fd5b602082029050602081019050919050565b600067ffffffffffffffff8211156117ab57600080fd5b601f19601f8301169050602081019050919050565b600067ffffffffffffffff8211156117d757600080fd5b601f19601f8301169050602081019050919050565b600081519050919050565b600081519050919050565b600082825260208201905092915050565b600081905092915050565b60006118298261183c565b9050919050565b60008115159050919050565b600073ffffffffffffffffffffffffffffffffffffffff82169050919050565b6000819050919050565b82818337600083830152505050565b60005b83811015611893578082015181840152602081019050611878565b838111156118a2576000848401525b50505050565b6000601f19601f8301169050919050565b6118c28161181e565b81146118cd57600080fd5b50565b6118d98161185c565b81146118e457600080fd5b5056fea365627a7a72315820b1020bbcd9f104703c04edb7f199f3875370199f620fd73c67b558d9499d80af6c6578706572696d656e74616cf564736f6c63430005100040",
  "source": "pragma solidity ^0.5.16; // remove '^' to lock the actual solidity version (to decrease security risks)\r\npragma experimental ABIEncoderV2;\r\n\r\ncontract Election {\r\n    // // Store candidate\r\n    // // Read candidate\r\n    // string public candidate; // state variable - accessible inside contract (represent data that belongs to entire contract)\r\n    // // Constructor - smth that's gonna get run whenever contract is initialized upon migration\r\n    // constructor () public { // we use this for this ver, not the 'function Election () public' one\r\n    //     candidate = \"Nephia Dalisay\"; \r\n    // }\r\n\r\n    // // Model a Person\r\n        struct Person {\r\n            uint id;\r\n            string addr;\r\n            uint role;\r\n        }\r\n\r\n    // Model a Candidate\r\n        struct Candidate {\r\n            uint id;    // unsigned integer\r\n            string name;\r\n            uint voteCount;\r\n        }\r\n\r\n        struct Election_Instance {\r\n            string code;\r\n            bool ongoing;\r\n        }\r\n\r\n    // Store all people\r\n        mapping (uint => Person) public persons;\r\n        mapping (string => uint) public persons2; // address => role_num \r\n\r\n    // Store all election instances\r\n        mapping (uint => Election_Instance) public election_instances;\r\n\r\n    // Store accounts that have voted\r\n    // ~~~~~~~~~~~~~~~~~~~~~~~~~~~~~~\r\n    mapping(address => bool) public voters;\r\n        // mapping(string => Voter) public voters;\r\n\r\n    mapping(address => bool) public isRegistered;\r\n\r\n    mapping(uint => address) public myVotes; // new vote storage !!!!!!!!!!!!!!!!!!!!!!!!!\r\n    mapping (address => string) public myVotes2; // !!!!!!!!!!!!!!!!!!!!!!!!!\r\n\r\n    mapping (uint => address) public allVoteArraysIndex;\r\n    mapping (address => uint[]) public allVoteArrays;\r\n\r\n    // Store Candidate\r\n    // Fetch Candidate\r\n    mapping(uint => Candidate) public candidates; // mapping(_KeyType => _ValueType) public mappingName\r\n\r\n    // Store Candidates Count\r\n        uint public candidatesCount; //used to keep track of how many candidates there are (iterating not possible in Solidity)\r\n\r\n        uint public allVotesCount; // storing number of all votes !!!!!!!!!!!!!!!!!!!!\r\n\r\n        uint public allVoteArraysCounter;\r\n\r\n        // array to store all candidate votes\r\n        uint[] candVotes;\r\n\r\n    // Election Instances Count\r\n        uint public electionInstancesCount;\r\n\r\n    // Persons Count\r\n        uint public personsCount;\r\n\r\n    // constructor function is responsible for initializing upon call of Election smart contract\r\n    constructor () public { // we use this for this ver, not the 'function Election () public' one\r\n        addCandidate(\"Nephia Dalisay!\");\r\n        addCandidate(\"Bianca Bueno!\");\r\n    }\r\n\r\n\r\n    function addCandidate (string memory _name) public {\r\n        candidatesCount ++;\r\n        candidates[candidatesCount] = Candidate(candidatesCount, _name, 0);\r\n    }\r\n\r\n    function addElection (string memory _code) public{\r\n        electionInstancesCount ++;\r\n        election_instances[electionInstancesCount] = Election_Instance(_code, false);\r\n    }\r\n\r\n    function register(string memory _addr, uint _role) public {        \r\n        address myAddress_addr = parseAddr(_addr);\r\n        // require that they haven't registered before\r\n        require(!isRegistered[myAddress_addr]);\r\n        isRegistered[myAddress_addr] = true;\r\n        personsCount ++;\r\n        persons[personsCount] = Person(personsCount, _addr, _role);\r\n        persons2[_addr] = _role;\r\n    }\r\n\r\n    function addVoter(string memory _addr2, uint _role2) public {        \r\n        address myAddress_addr = parseAddr(_addr2);\r\n        // string myAddress_str = _addr;\r\n        \r\n        require(!isRegistered[myAddress_addr]);\r\n        isRegistered[myAddress_addr] = true;\r\n        personsCount ++;\r\n        persons[personsCount] = Person(personsCount, _addr2, _role2);\r\n        persons2[_addr2] = _role2;\r\n    }\r\n\r\n    // function addDB(string memory _addr3, uint _role3) public {\r\n    //     persons2[_addr3] = _role3;\r\n    // }\r\n\r\n    // function sign_in (string memory _addr) public {\r\n    //     require(!persons2[_addr]);\r\n    //     person_uint = persons2[_addr];\r\n    // }\r\n\r\n    // function vote(uint _candidateId, string memory _votersvote) public {\r\n    function vote(uint _candidateId, string memory _votersvote, uint[] memory _votearray) public {\r\n        // require that they haven't voted before\r\n        require(!voters[msg.sender]);\r\n        // require a valid candidate\r\n        require(_candidateId > 0 && _candidateId <= candidatesCount);\r\n\r\n        // record that voter has voted\r\n        voters[msg.sender] = true; // msg.sender is x in 'from:x'\r\n\r\n        allVotesCount++;\r\n        myVotes[allVotesCount] = msg.sender; // for easier displaying of votes, each voter that has voted is assigned to an index\r\n        myVotes2[msg.sender] = _votersvote; // storing vote in mapping \r\n\r\n        allVoteArraysCounter++;\r\n        allVoteArraysIndex[allVoteArraysCounter] = msg.sender;\r\n        allVoteArrays[msg.sender] = _votearray; // storing in mapping ETH Wallet => encrypted vote\r\n\r\n        //candVotes[_candidateId] = candVotes[_candidateId] + _votersvoteint; // add (using encrypted value) the votes of specific candidate\r\n\r\n        // update candidate vote count\r\n        candidates[_candidateId].voteCount ++;\r\n    }\r\n\r\n    // function merge(string memory s1, string memory s2) public returns (string _votersvote){\r\n\r\n    // }\r\n\r\n    function parseAddr(string memory _a) public returns (address _parsedAddress) {\r\n        bytes memory tmp = bytes(_a);\r\n        uint160 iaddr = 0;\r\n        uint160 b1;\r\n        uint160 b2;\r\n        for (uint i = 2; i < 2 + 2 * 20; i += 2) {\r\n            iaddr *= 256;\r\n            b1 = uint160(uint8(tmp[i]));\r\n            b2 = uint160(uint8(tmp[i + 1]));\r\n            if ((b1 >= 97) && (b1 <= 102)) {\r\n                b1 -= 87;\r\n            } else if ((b1 >= 65) && (b1 <= 70)) {\r\n                b1 -= 55;\r\n            } else if ((b1 >= 48) && (b1 <= 57)) {\r\n                b1 -= 48;\r\n            }\r\n            if ((b2 >= 97) && (b2 <= 102)) {\r\n                b2 -= 87;\r\n            } else if ((b2 >= 65) && (b2 <= 70)) {\r\n                b2 -= 55;\r\n            } else if ((b2 >= 48) && (b2 <= 57)) {\r\n                b2 -= 48;\r\n            }\r\n            iaddr += (b1 * 16 + b2);\r\n        }\r\n        return address(iaddr);\r\n}\r\n\r\n}",
  "sourcePath": "/mnt/c/Users/Nephia/NephFiles/Academics/Thesis/election/contracts/Election.sol",
  "compiler": {
    "name": "solc",
    "version": "0.5.16+commit.9c3226ce.Emscripten.clang"
  },
  "schemaVersion": "3.3.1",
  "updatedAt": "2021-05-30T19:32:03.613Z",
  "networkType": "ethereum",
  "devdoc": {
    "methods": {}
  },
  "userdoc": {
    "methods": {}
  }
}