{
  "contractName": "Election",
  "abi": [
    {
      "inputs": [],
      "payable": false,
      "stateMutability": "nonpayable",
      "type": "constructor"
    },
    {
      "constant": true,
      "inputs": [
        {
          "internalType": "uint256",
          "name": "",
          "type": "uint256"
        }
      ],
      "name": "candidates",
      "outputs": [
        {
          "internalType": "uint256",
          "name": "id",
          "type": "uint256"
        },
        {
          "internalType": "string",
          "name": "name",
          "type": "string"
        },
        {
          "internalType": "uint256",
          "name": "voteCount",
          "type": "uint256"
        }
      ],
      "payable": false,
      "stateMutability": "view",
      "type": "function"
    },
    {
      "constant": true,
      "inputs": [],
      "name": "candidatesCount",
      "outputs": [
        {
          "internalType": "uint256",
          "name": "",
          "type": "uint256"
        }
      ],
      "payable": false,
      "stateMutability": "view",
      "type": "function"
    },
    {
      "constant": true,
      "inputs": [
        {
          "internalType": "address",
          "name": "",
          "type": "address"
        }
      ],
      "name": "voters",
      "outputs": [
        {
          "internalType": "bool",
          "name": "",
          "type": "bool"
        }
      ],
      "payable": false,
      "stateMutability": "view",
      "type": "function"
    },
    {
      "constant": false,
      "inputs": [
        {
          "internalType": "string",
          "name": "_name",
          "type": "string"
        }
      ],
      "name": "addCandidate",
      "outputs": [],
      "payable": false,
      "stateMutability": "nonpayable",
      "type": "function"
    },
    {
      "constant": false,
      "inputs": [
        {
          "internalType": "uint256",
          "name": "_candidateId",
          "type": "uint256"
        }
      ],
      "name": "vote",
      "outputs": [],
      "payable": false,
      "stateMutability": "nonpayable",
      "type": "function"
    }
  ],
  "bytecode": "0x608060405234801561001057600080fd5b506100556040518060400160405280600f81526020017f4e65706869612044616c6973617921000000000000000000000000000000000081525061009e60201b60201c565b6100996040518060400160405280600d81526020017f4269616e6361204275656e6f210000000000000000000000000000000000000081525061009e60201b60201c565b6101bf565b60026000815480929190600101919050555060405180606001604052806002548152602001828152602001600081525060016000600254815260200190815260200160002060008201518160000155602082015181600101908051906020019061010992919061011a565b506040820151816002015590505050565b828054600181600116156101000203166002900490600052602060002090601f016020900481019282601f1061015b57805160ff1916838001178555610189565b82800160010185558215610189579182015b8281111561018857825182559160200191906001019061016d565b5b509050610196919061019a565b5090565b6101bc91905b808211156101b85760008160009055506001016101a0565b5090565b90565b6105a3806101ce6000396000f3fe608060405234801561001057600080fd5b50600436106100575760003560e01c80630121b93f1461005c5780632d35a8a21461008a5780633477ee2e146100a8578063462e91ec1461015d578063a3ec138d14610218575b600080fd5b6100886004803603602081101561007257600080fd5b8101908080359060200190929190505050610274565b005b610092610365565b6040518082815260200191505060405180910390f35b6100d4600480360360208110156100be57600080fd5b810190808035906020019092919050505061036b565b6040518084815260200180602001838152602001828103825284818151815260200191508051906020019080838360005b83811015610120578082015181840152602081019050610105565b50505050905090810190601f16801561014d5780820380516001836020036101000a031916815260200191505b5094505050505060405180910390f35b6102166004803603602081101561017357600080fd5b810190808035906020019064010000000081111561019057600080fd5b8201836020820111156101a257600080fd5b803590602001918460018302840111640100000000831117156101c457600080fd5b91908080601f016020809104026020016040519081016040528093929190818152602001838380828437600081840152601f19601f82011690508083019250505050505050919291929050505061042d565b005b61025a6004803603602081101561022e57600080fd5b81019080803573ffffffffffffffffffffffffffffffffffffffff1690602001909291905050506104a9565b604051808215151515815260200191505060405180910390f35b6000803373ffffffffffffffffffffffffffffffffffffffff1673ffffffffffffffffffffffffffffffffffffffff16815260200190815260200160002060009054906101000a900460ff16156102ca57600080fd5b6000811180156102dc57506002548111155b6102e557600080fd5b60016000803373ffffffffffffffffffffffffffffffffffffffff1673ffffffffffffffffffffffffffffffffffffffff16815260200190815260200160002060006101000a81548160ff021916908315150217905550600160008281526020019081526020016000206002016000815480929190600101919050555050565b60025481565b6001602052806000526040600020600091509050806000015490806001018054600181600116156101000203166002900480601f01602080910402602001604051908101604052809291908181526020018280546001816001161561010002031660029004801561041d5780601f106103f25761010080835404028352916020019161041d565b820191906000526020600020905b81548152906001019060200180831161040057829003601f168201915b5050505050908060020154905083565b6002600081548092919060010191905055506040518060600160405280600254815260200182815260200160008152506001600060025481526020019081526020016000206000820151816000015560208201518160010190805190602001906104989291906104c9565b506040820151816002015590505050565b60006020528060005260406000206000915054906101000a900460ff1681565b828054600181600116156101000203166002900490600052602060002090601f016020900481019282601f1061050a57805160ff1916838001178555610538565b82800160010185558215610538579182015b8281111561053757825182559160200191906001019061051c565b5b5090506105459190610549565b5090565b61056b91905b8082111561056757600081600090555060010161054f565b5090565b9056fea265627a7a72315820c47c4451559a558d778233615fa5e0c94b88575383a4ee0f96c7323efd7c55c864736f6c63430005100032",
  "source": "pragma solidity ^0.5.16; // remove '^' to lock the actual solidity version (to decrease security risks)\r\n\r\ncontract Election {\r\n    // // Store candidate\r\n    // // Read candidate\r\n    // string public candidate; // state variable - accessible inside contract (represent data that belongs to entire contract)\r\n    // // Constructor - smth that's gonna get run whenever contract is initialized upon migration\r\n    // constructor () public { // we use this for this ver, not the 'function Election () public' one\r\n    //     candidate = \"Nephia Dalisay\"; \r\n    // }\r\n\r\n    // Model a Candidate\r\n        struct Candidate {\r\n            uint id;    // unsigned integer\r\n            string name;\r\n            uint voteCount;\r\n        }\r\n\r\n    // Store accounts that have voted\r\n    mapping(address => bool) public voters;\r\n\r\n\r\n    // Store Candidate\r\n    // Fetch Candidate\r\n        mapping(uint => Candidate) public candidates; // mapping(_KeyType => _ValueType) public mappingName\r\n\r\n    // Store Candidates Count\r\n        uint public candidatesCount; //used to keep track of how many candidates there are (iterating not possible in Solidity)\r\n\r\n    // constructor function is responsible for initializing upon call of Election smart contract\r\n    constructor () public { // we use this for this ver, not the 'function Election () public' one\r\n        addCandidate(\"Nephia Dalisay!\");\r\n        addCandidate(\"Bianca Bueno!\");\r\n    }\r\n\r\n    function addCandidate (string memory _name) public {\r\n        candidatesCount ++;\r\n        candidates[candidatesCount] = Candidate(candidatesCount, _name, 0);\r\n    }\r\n\r\n    function vote(uint _candidateId) public {\r\n        // require that they haven't voted before\r\n        require(!voters[msg.sender]);\r\n        // require a valid candidate\r\n        require(_candidateId > 0 && _candidateId <= candidatesCount);\r\n\r\n        // record that voter has voted\r\n        voters[msg.sender] = true; // msg.sender is x in 'from:x'\r\n\r\n        // update candidate vote count\r\n        candidates[_candidateId].voteCount ++;\r\n\r\n    }\r\n}",
  "sourcePath": "/mnt/c/Users/Nephia/NephFiles/Academics/Thesis/election/contracts/Election.sol",
  "compiler": {
    "name": "solc",
    "version": "0.5.16+commit.9c3226ce.Emscripten.clang"
  },
  "schemaVersion": "3.3.1",
  "updatedAt": "2021-04-10T12:07:01.990Z",
  "networkType": "ethereum",
  "devdoc": {
    "methods": {}
  },
  "userdoc": {
    "methods": {}
  }
}